:020000040800F2
:1000000000040020C7020008D5020008D70200083B
:10001000D9020008DB020008DD0200080000000031
:10002000000000000000000000000000DF020008E7
:10003000E102000800000000E3020008E5020008F9
:10004000E7020008E7020008E7020008F90B0008D1
:10005000E7020008E7020008E7020008E7020008DC
:10006000E7020008E7020008E7020008E7020008CC
:10007000E7020008E7020008E7020008E7020008BC
:10008000E7020008E7020008E7020008E7020008AC
:10009000E7020008E7020008E7020008E70200089C
:1000A000E7020008E7020008E7020008E70200088C
:1000B000E7020008E702000867100008E7020008EE
:1000C000E7020008E7020008E7020008E70200086C
:1000D000E7020008A50C00084B0E0008E702000824
:1000E000E7020008E7020008E7020008E70200084C
:1000F000E7020008E7020008E7020008E70200083C
:10010000E7020008E7020008E7020008E70200082B
:10011000E7020008E7020008E7020008E70200081B
:10012000E7020008E7020008E7020008E70200080B
:1001300000F002F800F0B2F80AA090E8000C824447
:100140008344AAF10107DA4501D100F0A7F8AFF224
:10015000090EBAE80F0013F0010F18BFFB1A43F0A5
:10016000010318479C4B0000BC4B00000A444FF0B1
:10017000000C10F8013B13F0070408BF10F8014B06
:100180001D1108BF10F8015B641E05D010F8016B4B
:10019000641E01F8016BF9D113F0080F1EBF10F8AF
:1001A000014BAD1C0C1B09D16D1E58BF01F801CBD2
:1001B000FAD505E014F8016B01F8016B6D1EF9D555
:1001C0009142D6D37047000000230024002500266A
:1001D000103A28BF78C1FBD8520728BF30C148BFAA
:1001E0000B6070476E2902F05B82702902F0BD83BC
:1001F000662904F0C084652904F0BD84672904F0F1
:10020000BA846129AFF3008003681B0A28BF41F05C
:100210008001692902F00C82642902F009827529A3
:1002200002F006826F2902F03E83782902F08A8369
:10023000E92902F0C382E42902F0C082F52902F024
:10024000BD82EF2902F03B83F82902F0898303681D
:10025000DB0928BF41F08001632902F02F87732951
:1002600002F03487E32902F03F87F32902F0448744
:10027000002070471FB5AFF3008002F097FF040025
:100280000020002103F06EFC401C60600020002173
:1002900003F052FCE0601FBD10B510BD02F058FF26
:1002A0001146FFF7E7FF00F031F803F02BF8FFF7F6
:1002B000F3FF00F0E9FC000030BF72B662B680F3D5
:1002C0000888704770470B4880470B4981F30888BE
:1002D0000A480047FEE7FEE7FEE7FEE7FEE7FEE727
:1002E000FEE7FEE7FEE7FEE705480649044A064B3F
:1002F00070470000C5020008B81200203101000854
:10030000B80A0020B8120020B80A00202DE9FC5FCE
:1003100000240025092000F003FA482000F09AF894
:100320004FF41651482000F0F8FC4FF416512420E9
:1003300000F0FFFD00F021FF00F0A4FB01F09BFEA8
:1003400001F0E4F800F0A6FF01F09AF87BE03E48E7
:100350008078A0420BD03C48847801F08FF901F0FE
:10036000FCF901F02EFA01F08BFA01F0CDFB3748D1
:10037000008810F4004F66D034480088C5B2102DB4
:100380005ED100253248007830384FF47A71484306
:100390002F494978303901EBC10202EB011100EB22
:1003A00081002B498978303901EB810100EB410054
:1003B0002749C9783039084486B225484079303811
:1003C00023490979303901EB810100EB4100C7B2C3
:1003D0001F48C07930381E498979303901EB8101D5
:1003E00000EB410000F0FF081948407A3038184906
:1003F000097A303901EB810100EB410000F0FF097F
:100400001348C07A30381249897A303901EB8101BA
:1004100000EB410000F0FF0A0D48407B30380C49EA
:10042000097B303901EB810100EB410000F0FF0B4B
:100430004B46424639463046CDE900AB00F09AFAC9
:1004400000200249088082E79C050020100000205F
:10045000380700204FF0E021096921F004014FF036
:10046000E02211610146C21700EB5272D2101F4BFD
:100470001A70194609784FF47A7251439A1C118008
:1004800070471A4A127842434FF0E0235A61002223
:100490009A6101221A6100BF4FF0E022116911F048
:1004A000010F02D011F4803FF6D000224FF0E0237C
:1004B0001A619A6170470D4A921C128842434FF0AC
:1004C000E0235A6100229A6101221A6100BF4FF0B5
:1004D000E022116911F0010F02D011F4803FF6D033
:1004E00000224FF0E0231A619A617047000000205B
:1004F000AC4A0A400243AC4B1A607047072323EA18
:1005000000021202A84B1B1D19684FF6FF03194089
:10051000A64B194311434FF0E023C3F80C1D70475D
:100520002DE9F04704460D4616461F463046F117A2
:1005300006EB91714FEAA109F11706EB9171891051
:10054000A6EB810101F0FF0A042101EBCA0000F0D3
:10055000FF0A3846FFF7D2FFC7F1040004FA00F89B
:100560000F203841284040EA080808F00F08202EE4
:1005700009DA8F4800680121B14008434FF0E021BB
:10058000C1F800010BE08A48001D0168A6F12002B5
:100590000120904001434FF0E020C0F8041185484D
:1005A00050F8290008FA0AF10143824840F829105E
:1005B000BDE8F08770B50D46CE1701EB9676B31007
:1005C000CE1701EB9676B610A1EB8606B606340E72
:1005D000794DAD6945F00105774EB5614FEAB63505
:1005E00055F823600F25A540AE43744D45F82360B0
:1005F00055F8235000FA04F63543704E46F8235060
:100600006F4D2E6801258D402E436C4D083DC5F879
:10061000006412F0010F09D0694D0C352E680125D8
:100620008D402E43654D083DC5F80C6412F0020F55
:1006300009D0634D08352E6801258D402E435F4D4E
:10064000083DC5F8086470BD00B500205A4908612E
:10065000C8601420486100208861C86108460068AD
:1006600040F0010008600846406856490840524979
:10067000486008460068544908404F4908600846E9
:10068000006820F4802008600846406820F4FE00DE
:1006900048600020886000214FF00060FFF728FFCD
:1006A00000BD10B540480830006840F004004FF02D
:1006B000E021C1F8100D4048C06940F080503E492B
:1006C000C8614248406840F480704049486008462C
:1006D000006840F0040008600846006840F002002E
:1006E0000860FFF7E9FD10BD3048001D2E49091DC7
:1006F000086070470146084649062F4A926942F051
:1007000001022D4B9A612D4A083A526822F0E062AC
:100710002A4B083B5A601A4652680A435A6070478F
:1007200030B504460025FFF78FFF2348006840F4EA
:1007300080302149086000BF1F480068400CFBD092
:100740004FF480601C494860A01EC4B2084640684F
:1007500040EA844048600846406840F48030486081
:100760001B48006840F032001949086012480068D0
:1007700040F080701049086000BF0F480068400ECC
:10078000FBD00D48406840F002000B49486005E08E
:1007900009484068C0F3870505F00305022DF7D12D
:1007A00030BD000080FFFF1F08ED00E00000FA05EB
:1007B00000E100E000E400E0001002400800014019
:1007C000000401400000FFF8FFFFF6FE007000404B
:1007D00000200240F0B50346642093FBF0F0C5B260
:1007E000642093FBF0F700FB1730C6B2132D02DD37
:1007F00006F16400C6B2F71706EB9777304606EBB2
:10080000A704072094FBF0F700FB174084B2A01860
:100810004F1EDFF834C41CF80770384484B2F71751
:1008200006EB9777BF10B6EB870703D1032901DAF0
:10083000601E84B2072094FBF0F700FB1740C0B2A3
:10084000F0BD0146CA1701EB92729210B1EB820221
:1008500012D1642091FBF0F200FB121050B94FF45A
:10086000C87091FBF0F200FB121008B9012070472C
:100870000020FCE70120FAE70020F8E770B500252A
:1008800000260024F14805882D04F148B0F81C0822
:100890000544F048B5FBF0F6EF480088B0423CD084
:1008A000ED490E8040F2B27410E02046FFF7C9FF18
:1008B00040B1B6F5B77F02D3A6F5B77604E0601C69
:1008C00084B206E0A6F26D16601C84B2B6F5B67F5F
:1008D000EBD800BFE1488480002416E0DF49888817
:1008E000FFF7AFFF30B1012C04D11D2E01D31D3E07
:1008F00009E00CE0DA48005DB04203D8D848005D5A
:10090000361A00E003E0601C84B21C2EE6D200BF61
:10091000601CD2498871701CC871CE48B5FBF0F1DB
:1009200000FB11564FF46160B6FBF0F0CB49087044
:100930004FF46160B6FBF0F100FB11603C21B0FBAD
:10094000F1F0C64948704FF46160B6FBF0F100FB6E
:1009500011603C21B0FBF1F201FB1200BF4988702D
:100960000B46DA7999799888FFF734FFBB4908720A
:10097000002070BD2DE9F04F04460D4616461F4677
:10098000DDE909894FF0000B40F2B270844203DBCD
:1009900040F63300844202DD0120BDE8F08F40F2D2
:1009A000B27A0CE05046FFF74CFF10B1AD488344DB
:1009B00001E0AD4883440AF101001FFA80FAA24524
:1009C000F0DB681EC5B24FF0000A14E0A44810F82E
:1009D0000A0040F2A32148430BEBC01B2046FFF75F
:1009E00030FF20B1BAF1010F01D19A4883440AF1D6
:1009F00001001FFA80FAAA45E8DB701E40F2A3212D
:100A000048430BEBC01BC7EB4710C0EB07200BEBB9
:100A1000001BC8EB08100BEB800BCB449348C0695C
:100A200040F080509149C8610846C06940F00060BC
:100A3000C8618F48006840F480708D490860834821
:100A40001438008840F010008149A1F804087F495B
:100A5000091DA1F800B04FEA1B407D49A1F8180814
:100A60000846B0F8040820F01000A1F8040800BF00
:100A700076481438008810F0200FF9D0FFF7FEFEFA
:100A800000208AE71CB500247A480088A0F5A04120
:100A900050397ED07548C06940F080507349C861B4
:100AA0000846C06940F00060C8617148006840F4C1
:100AB00080706F4908606D48006A40F480306B496F
:100AC00008620846006A20F4803008620846006A1E
:100AD00040F00100086204E0601CC4B20A20FFF785
:100AE000EAFC6248006A10F0020F01D1FA2CF3DB35
:100AF000FA2C01DB01201CBD5C48006A40F48070C8
:100B00005A4908620846006A40F40040086200BF83
:100B10004E481438008810F0200FF9D000BF4B4821
:100B20001438008810F0080FF9D0484818380088A9
:100B300040F001004649A1F8000800BF43481438BE
:100B4000008810F0200FF9D040481438008840F099
:100B500010003F49A1F8040800203C4910390880E2
:100B600047F6FF703A49A1F80C0837231022CDE967
:100B700000230D230722092140F2DC70FFF7FAFE63
:100B80003348B0F8040820F010003149A1F80408F7
:100B900000E00EE000BF2D481438008810F0200F50
:100BA000F9D045F250003349088033A001F0A2FC8F
:100BB00018E000BF25481438008810F0080FF9D05D
:100BC00022481838008840F001002149A1F80008A7
:100BD00000BF1E481438008810F0200FF9D029A05B
:100BE00001F088FC0223032200210846FFF798FC4D
:100BF000FFF744FE00207EE700B514481438008853
:100C000010F0010F01D0FFF739FE104814380088AA
:100C100010F0020F07D00D481438008820F00200B1
:100C20000B49A1F8040809481438008840F6FA7105
:100C300008400749A1F8040800BF04481438008898
:100C400010F0200FF9D000BD0E4C0008182800400D
:100C50000020004080510100040000209C0500207D
:100C60001A4C00080085E2018033E10100100240C7
:100C700000700040046C00404649525354205449CF
:100C80004D450A004F4B0A00014600BF704700BFA8
:100C90005A4A128812F0400FFAD0C2B2574B1B1DAD
:100CA0001A8070475549098811F0200F34D05349F4
:100CB000091D0988C8B25249098811F4004F2BD187
:100CC0004F49098811F4804F0CD00A2803D0002125
:100CD0004B4A118020E04A49098841F40041484AC2
:100CE000118019E00D2806D14549098841F4804159
:100CF000434A118010E042490988C1F30D01414A7D
:100D000050543F490988491C3D4A118011460988C1
:100D1000C72901DD0021118070472DE9F05F0446ED
:100D20000D46280103F063FD8146374904FB01F0BD
:100D300003F05DFD8246494603F022FC064630463C
:100D400003F010FD87B2384603F051FD834631466B
:100D500003F032FE82464FF0834103F04DFD8146A1
:100D600003F000FD80463F0107EB080087B22748EB
:100D7000806940F00400254988610846806940F494
:100D8000804088612248006820F47F602149C1F8D2
:100D900004080846D0F8040840F40B60C1F80408C1
:100DA0001A48C06840F480401849C8600846C068C6
:100DB00020F48040C8601848A0F808780F480C302C
:100DC000008842F20C0108431349A1F80C080846B8
:100DD000B0F80C0840F48070A1F80C080846B0F890
:100DE0000C0840F0200005490C3108800223252220
:100DF00003210846FFF794FBBDE8F09F003801404F
:100E000008000020A605002040420F00001002400C
:100E100004080140000001400030014058B10021A9
:100E20009E4A11801107B1F8001841F001019B4A58
:100E3000243A118008E099492439098821F00101F8
:100E40004FF08042A2F80018704700B5944800881F
:100E500010F0200F20D09248001D0088C3B29148A6
:100E60000088B0F5487F11DA00208C4908808D4851
:100E7000008810B90120FFF7D1FF8A480188008857
:100E8000401C884A10808848435405E08548008803
:100E900040F400408349088000BD70B504460D460B
:100EA0008248C06940F004008049C8617B4808302E
:100EB00004808804A0F82858B0F80C0840F001001D
:100EC0008904A1F80C080846B0F8000840F00100B9
:100ED000A1F8000802231E2203210120FFF720FBB6
:100EE00070BD70B504460D4616467048406940F026
:100EF00001006E4948610520FFF7C3FAA560E6606E
:100F000000202060206840F01000206020682060F1
:100F100020682060206840F0800020602068206009
:100F200020682060206840F48050206020682060A5
:100F300070BD70B504460D465C48806940F4807011
:100F40005A4988615A48406820F0F0005849486082
:100F50000846406840F0300048605448806940F0DE
:100F60000400524988615348006820F47F40524988
:100F7000C1F800080846D0F8000840F40B40C1F85A
:100F800000084A48C06940F400304849C861084632
:100F9000006940F4003008610846006920F4003020
:100FA000086146486043B0FBF5F04FF04021A1F8DE
:100FB00008043B480C30008842F20C0108433849D1
:100FC0000C31088080204FF04021A1F814043449EE
:100FD000091D3B4A3B48FFF784FF4FF04020B0F823
:100FE0000C0440F480704FF04021A1F80C04084636
:100FF000B0F80C0440F02000A1F80C0402232622D3
:1010000003211846FFF78CFA41F61F416320FFF7D2
:1010100044FF002023490880FFF700FF70BD0268ED
:1010200022F0010202604160026842F001020260A7
:1010300070470FB438B505A800902148009A04996C
:1010400001F044FA00BF1F48001D00680028FAD1D3
:101050001B4801F069FAC4B221461A48FFF7DFFFC6
:1010600038BC5DF814FB00B50C481438008810F04B
:10107000010F11D00B48008840F400400949088056
:1010800006481438008820F001004FF08041A1F894
:1010900010080020FFF7C2FE00BD00002408004039
:1010A00000440040100000203807002000100240DB
:1010B00000200140000801400000014040420F00B4
:1010C00070060020800002400020F84908600120DE
:1010D000F749C1F8B801C1F8BC01F648C06800F48E
:1010E0007F4040F0FF00F349C8600846006820F0E8
:1010F000704008600846006840F0004008600846FC
:10110000C06840F08050C86000BFEB48006801280C
:10111000FBD0E84800680020E649086008460068FF
:1011200040F0333008600846C06840F01130C860B5
:101130000846C06800F47F4040F0FF00C86000200F
:10114000DA4908310860704700B50246FFF7BCFF76
:101150000020D6490860D649C1F8B8010120C1F87D
:10116000BC01D448C06800F47F401043D149C86036
:101170000020CF49C1F8BC0100BD10B5CF4880693F
:1011800040F00800CD4988610846806940F01000B1
:1011900088610846806940F480708861C8480068AA
:1011A00020F47F20C749C1F8000C0846D0F8000C95
:1011B00040F44C30C1F8000C0846D0F80C0C40F05C
:1011C0001800C1F80C0CC0484068C0F31300BE49B9
:1011D000486008464068BD490843BB494860084626
:1011E000C06840F46040C860B24800680020B1495F
:1011F00008600846006840F0333008600846C06860
:1012000040F0FF00C8600120B14908603020FFF7BE
:101210009BFF0520FFF74FF90C20FFF795FF0520F6
:10122000FFF749F90120FFF78FFF0520FFF743F98A
:1012300010BD00B50246FFF747FF01209B4908603B
:1012400000209B49C1F8B8010120C1F8BC019948B0
:10125000C06800F47F4010439649C860002094495C
:10126000C1F8BC0100BD00B5034603E01878FFF7E4
:10127000E0FF5B1C18780028F8DC00BD10B50346C1
:101280000C461BB92046FFF75FFF02E02046FFF740
:10129000D0FF10BD00B501210020FFF7EFFF00BD1A
:1012A00000B580210020FFF7E9FF8AA0FFF7DBFFF0
:1012B00090210020FFF7E2FF86A0FFF7D4FF8821EE
:1012C0000020FFF7DBFF83A0FFF7CDFF00BD2DE976
:1012D000F04304460D4616463620FFF735FF012D34
:1012E00001D0022D04D14FF08009681E0007050EC1
:1012F000032D01D0042D04D14FF08809E81E00070A
:10130000050E002724E005F180013944C8B2FFF73B
:101310001BFF09EB0401491EC8B2FFF715FF4FF090
:10132000000810E0012E06D113F8012BD143C8B2FA
:10133000FFF77FFF03E013F8010BFFF77AFF08F1D7
:10134000010000F0FF08B8F1020FEBDB781CC7B218
:10135000102FD8DB3620FFF7F7FEBDE8F0832DE92C
:10136000F04104460D4690461F465F4E06EB47137C
:10137000424629462046FFF7AAFFBDE8F0812DE945
:10138000F04303460C461546012C04D0022C05D030
:10139000032C09D105E04FF0800807E04FF08008EA
:1013A00004E04FF0880801E0BDE8F08300BF08EBDF
:1013B0000300401E00F0FF093620FFF7C5FE012C98
:1013C00001D0032C17D1002613E006F18001C8B22A
:1013D000FFF7BAFE4846FFF7B7FE002705E015F80D
:1013E000010BFFF726FF781CC7B2022FF7DB701C3A
:1013F000C6B2202EE9DB022C31D1002613E006F123
:101400009001C8B2FFF7A0FE4846FFF79DFE0027F7
:1014100005E015F8010BFFF70CFF781CC7B2022F8F
:10142000F7DB701CC6B2102EE9DB002615E006F1D2
:101430008001C8B2FFF788FE09F10800C0B2FFF7CB
:1014400083FE002705E015F8010BFFF7F2FE781C7C
:10145000C7B2022FF7DB701CC6B2102EE7DB3620B6
:10146000FFF772FEA0E700B53020FFF76DFE0C20FD
:10147000FFF76AFE0620FFF767FEFFF70BFF00BDD0
:1014800030B53620FFF760FEFFF7EDFF3620FFF79F
:101490005BFE002436E004F18001C8B2FFF754FE81
:1014A0008020FFF751FE002528E00000B40124420F
:1014B00000002442001001401C01224200100240A2
:1014C000000C0140000001400020014000003033CA
:1014D0008C8121422020202020202020202020201C
:1014E0002020202000000000D20200200020FFF772
:1014F000A0FE0020FFF79DFE681CC5B2102DF5DB95
:10150000601CC4B2202CC6DB30BD000010B58020AA
:10151000FFF71AFEF6A0FFF7A6FE4FF4FA70FEF7EB
:10152000CAFF9020FFF710FEF6A0FFF79CFE4FF4D5
:10153000FA70FEF7C0FF8820FFF706FEF6A0FFF75F
:1015400092FE3220FEF7B7FF8820FFF7FDFDF7A0DF
:10155000FFF789FE3220FEF7AEFF8820FFF7F4FD8B
:10156000F7A0FFF780FE3220FEF7A5FF8820FFF7E7
:10157000EBFDF8A0FFF777FE3220FEF79CFF8820F6
:10158000FFF7E2FDF8A0FFF76EFE3220FEF793FFB3
:101590008820FFF7D9FDF9A0FFF765FE3220FEF79E
:1015A0008AFF8820FFF7D0FDF9A0FFF75CFE32200C
:1015B000FEF781FF8820FFF7C7FDFAA0FFF753FE73
:1015C0003220FEF778FF8820FFF7BEFDFAA0FFF774
:1015D0004AFE3220FEF76FFF9820FFF7B5FDFBA013
:1015E000FFF741FE3220FEF766FF9820FFF7ACFDC3
:1015F000FBA0FFF738FE3220FEF75DFF9820FFF7D3
:10160000A3FDFCA0FFF72FFE3220FEF754FF982029
:10161000FFF79AFDFCA0FFF726FE3220FEF74BFFF6
:101620009820FFF791FDFDA0FFF71DFE3220FEF789
:1016300042FF9820FFF788FDFDA0FFF714FE32203F
:10164000FEF739FF9820FFF77FFDFEA0FFF70BFEA6
:101650003220FEF730FF9820FFF776FDFEA0FFF75F
:1016600002FE3220FEF727FF9820FFF76DFDFFA056
:10167000FFF7F9FD3220FEF71EFF10BD2DE9F04106
:101680000024002500263020FFF75EFD0620FFF72E
:101690005BFDFB48848880210020FFF7EFFD4FF4BD
:1016A0007A7094FBF0F03030C7B23846FFF7C1FDD6
:1016B0004FF47A7094FBF0F100FB1140642190FB31
:1016C000F1F03030C7B23846FFF7B3FD642094FB29
:1016D000F0F100FB11400A2190FBF1F03030C7B26D
:1016E0003846FFF7A6FD0A2094FBF0F100FB1140FD
:1016F0003030C7B23846FFF79CFDE1488579E1A05C
:10170000FFF7B1FD0A2095FBF0F03030C7B2384644
:10171000FFF78FFD0A2095FBF0F100FB11503030F0
:10172000C7B23846FFF785FDD548C679D5A0FFF783
:101730009AFD0A2096FBF0F03030C7B23846FFF72A
:1017400078FD0A2096FBF0F100FB11603030C7B243
:101750003846FFF76EFDBDE8F08110B5C848047A41
:101760008620FFF7F1FCC8A0FFF77DFD8720FFF77B
:10177000EBFC14B9C5A0FFF776FD062C02D1C4A07E
:10178000FFF771FD052C02D1C2A0FFF76CFD042C00
:1017900002D1C1A0FFF767FD032C07D1C8210120AA
:1017A000FFF76CFDFD210120FFF768FD022C02D13F
:1017B000BAA0FFF758FD012C02D1B9A0FFF753FDE5
:1017C00010BD2DE9F041002400250026AC48047826
:1017D0000A2094FBF0F0B34901EB80173A4602214E
:1017E0000120FFF7CCFD0A2094FBF0F100FB114033
:1017F000AC4901EB80173A4602210846FFF7BFFDCE
:10180000A94A02210320FFF7BAFD9D4845780A2026
:1018100095FBF0F0A34901EB80173A460221042022
:10182000FFF7ADFD0A2095FBF0F100FB11509D493B
:1018300001EB80173A4602210520FFF7A0FD9A4AE6
:1018400002210620FFF79BFD8D4886780A2096FB33
:10185000F0F0944901EB80173A4602210720FFF788
:101860008EFD0A2096FBF0F100FB11608D4901EB23
:1018700080173A4602210820FFF781FDBDE8F0817C
:101880007CB500F014FC05460021284603F05EF804
:1018900006D80123002204211846FFF760FD07E067
:1018A00085F000450223002204210120FFF757FDA7
:1018B0007E49284602F0A0FF0546284602F052FF66
:1018C00084B2642094FBF0F03030C0B28DF8000098
:1018D0000A2094FBF0F00A2190FBF1F201FB1200C8
:1018E0003030C0B28DF801000A2094FBF0F1DFE047
:1018F0002020B8DFBEABB6C8CDF2C4EAC0FA2020C3
:1019000000000000C9E8BCC63A202020202020208A
:101910002020202000000000D3B2BCFEBCECB2E2CC
:10192000202020202020202000000000D3B2BCFE78
:10193000BCECB2E22E20202020202020000000005D
:10194000D3B2BCFEBCECB2E22E2E20202020202000
:1019500000000000D3B2BCFEBCECB2E22E2E2E2062
:101960002020202000000000D3B2BCFEBCECB2E27C
:101970002E2E2E2E2020202000000000D3B2BCFEF0
:10198000BCECB2E22E2E2E2E2E20202000000000D5
:10199000D3B2BCFEBCECB2E22E2E2E2E2E2E202078
:1019A00000000000D3B2BCFEBCECB2E22E2E2E2E04
:1019B0002E2E4F2000000000D3B2BCFEBCECB2E2E1
:1019C0002E2E2E2E2E2E4F4B00000000B3CCD0F228
:1019D000BCD3D4D8202020202020202000000000CC
:1019E000B3CCD0F2BCD3D4D82E202020202020206D
:1019F00000000000B3CCD0F2BCD3D4D82E2E2020CF
:101A00002020202000000000B3CCD0F2BCD3D4D8DA
:101A10002E2E2E202020202000000000B3CCD0F25B
:101A2000BCD3D4D82E2E2E2E202020200000000043
:101A3000B3CCD0F2BCD3D4D82E2E2E2E2E202020E4
:101A400000000000B3CCD0F2BCD3D4D82E2E2E2E62
:101A50002E2E202000000000B3CCD0F2BCD3D4D86E
:101A60002E2E2E2E2E2E4F2000000000B3CCD0F2B2
:101A7000BCD3D4D82E2E2E2E2E2E4F4B000000007D
:101A80009C0500202D000000D6DC0000C8D5000019
:101A9000C1F90000CEE50000CBC40000B6FE000096
:101AA000D2BB000012000020920200200000204162
:101AB00000FB11403030C0B28DF802009DF80000EC
:101AC000302802D120208DF800003020FFF73CFBA9
:101AD0000620FFF739FB9920FFF736FB9DF8000041
:101AE000FFF7A7FB9DF80100FFF7A3FB2E20FFF7F0
:101AF000A0FB9DF80200FFF79CFB00231A4604217F
:101B00000846FFF72CFC7CBD10B5B448C379827938
:101B10008088C1B2B248007800F0D6FB3020FFF7D1
:101B200013FB0620FFF710FB9C20FFF70DFBAD48D1
:101B30000078012806D1D521FFF7A0FBFD21012067
:101B4000FFF79CFBA7480078022803D1AFF2B4004E
:101B5000FFF789FBA3480078032807D1C82101209B
:101B6000FFF78CFBFD210120FFF788FB9D480078E3
:101B7000042803D1AFF2E000FFF775FB9948007825
:101B8000052803D1AFF2F400FFF76DFB954800780C
:101B9000062803D1AFF20810FFF765FB91480078E3
:101BA000072802D190A0FFF75EFB8E480078082836
:101BB00002D18EA0FFF757FB8A480078092802D18E
:101BC0008BA0FFF750FB874800780A2802D189A034
:101BD000FFF749FB834800780B2802D186A0FFF766
:101BE00042FB804800780C2802D184A0FFF73BFB21
:101BF00083A0FFF738FB83480078012802D182A038
:101C0000FFF731FB7F480078022802D180A0FFF760
:101C10002AFB7C48007803280AD17FA0FFF723FB2A
:101C2000C8210120FFF72AFBFD210120FFF726FB39
:101C300074480078042802D178A0FFF714FB71489B
:101C40000078052802D177A0FFF70DFB6D480078DA
:101C5000062802D175A0FFF706FB6A48007807281E
:101C600002D174A0FFF7FFFA66480078082802D175
:101C700072A0FFF7F8FA63480078092802D171A032
:101C8000FFF7F1FA5F4800780A2802D16FA0FFF74A
:101C9000EAFA5C4800780B2802D16EA0FFF7E3FA5D
:101CA000584800780C2802D16CA0FFF7DCFA5548A0
:101CB00000780D280AD14FA0FFF7D5FAC8210120DE
:101CC000FFF7DCFAFD210120FFF7D8FA4D48007834
:101CD0000E2802D163A0FFF7C6FA4A4800780F2801
:101CE00002D162A0FFF7BFFA46480078102802D15F
:101CF00060A0FFF7B8FA43480078112802D15FA02E
:101D0000FFF7B1FA3F480078122802D15DA0FFF733
:101D1000AAFA3C480078132802D15CA0FFF7A3FA86
:101D200038480078142802D15AA0FFF79CFA3548A9
:101D30000078152802D159A0FFF795FA31480078AC
:101D4000162802D157A0FFF78EFA2E4800781728E0
:101D50000AD156A0FFF787FAC8210120FFF78EFAB3
:101D6000FD210120FFF78AFA26480078182802D1C1
:101D70004FA0FFF778FA23480078192802D14EA027
:101D8000FFF771FA1F4800781A2802D14CA0FFF71C
:101D90006AFA1C4800781B2802D14BA0FFF763FAAF
:101DA000184800781C2802D149A0FFF75CFA1548B2
:101DB00000781D2802D148A0FFF755FA1148007895
:101DC0001E280AD1C8210120FFF758FAFD21012061
:101DD000FFF754FA07A0FFF746FA10BD9C05002054
:101DE0009705002099050020C6DF0000B0CB000059
:101DF000BEC50000CAAE0000B6AC0000C0B0000016
:101E0000D4C200009A050020B3F5D2BB0000000048
:101E1000B3F5B6FE00000000B3F50000B3F5CBC487
:101E200000000000B3F5CEE500000000B3F5C1F9F5
:101E300000000000B3F5C6DF00000000B3F5B0CB32
:101E400000000000B3F5BEC500000000B3F5CAAE47
:101E500000000000CAAED2BB00000000CAAEB6FE51
:101E600000000000CAAECBC400000000CAAECEE540
:101E700000000000CAAEC1F900000000CAAEC6DF13
:101E800000000000CAAEB0CB00000000CAAEBEC564
:101E900000000000B6FECAAE00000000D8A5D2BB0C
:101EA00000000000D8A5B6FE00000000D8A5000084
:101EB000D8A5CBC400000000D8A5CEE500000000E6
:101EC000D8A5C1F900000000D8A5C6DF00000000B9
:101ED000D8A5B0CB00000000D8A5BEC5000000000A
:101EE00010B59E48406820F470409C494860084600
:101EF000406840F44050486000209949086040F232
:101F0000EE20FEF7BEFA01209649C1F8AC010F2081
:101F1000FEF7B7FA10BD10B500249048406820F4D1
:101F200070408E4948600846406840F40040486070
:101F300004E0601CC4B20120FEF7A3FA8848803890
:101F4000006808B1C82CF4DBC82C01DB012010BDEF
:101F5000002404E0601CC4B20120FEF792FA80481D
:101F60008038006808B9F02CF4DBF02C01DB01208C
:101F7000EDE70020EBE710B57848406820F47040AA
:101F8000764948600846406840F440504860002068
:101F9000734908600220FEF774FA01207149C1F804
:101FA000AC016E48406820F470406C4948600846B7
:101FB000406840F4004048600C20FEF762FA684830
:101FC0008038006808B1012400E000243220FEF7C8
:101FD00058FA204610BD70B50026012408E0FFF72E
:101FE000CAFF0546E80140EA6600C6B2601CC4B2FA
:101FF000082CF4DD304670BD70B504465748406883
:1020000020F47040554948600846406840F440500C
:102010004860012620E004F0010564106DB1002045
:102020004F4908600220FEF72CFA01204D49C1F803
:10203000AC013C20FEF725FA0CE00020484908607E
:102040003C20FEF71EFA01204649C1F8AC010220EF
:10205000FEF717FA701CC6B2082EDCDD70BD10B595
:10206000FFF73EFFFFF757FFCC20FFF7C5FF4420E7
:10207000FFF7C2FF10BD10B53B48806940F4807087
:10208000394988613548406820F4704033494860D8
:102090000846406840F4405048600846C06840F434
:1020A0000060C860FFF71CFFFFF735FF10BD2DE98A
:1020B000F04188B0FFF7D3FFFFF712FFFFF72BFFC8
:1020C000CC20FFF799FFBE20FFF796FFFFF783FFB5
:1020D0000546FFF780FF0746072F05DDF843C7B227
:1020E000E843C5B2002400E001243E46300206B2B7
:1020F000701906B2304602F061FB804602F08CF99E
:10210000CDE9060119A00CC8069802F02BF8CDE91C
:10211000040101F0C3FF06B284B1304602F00CF8AE
:10212000CDE9060113A00CC8069801F0B7FDCDE972
:10213000040101F02DFD08B0BDE8F081704201F00E
:10214000FBFFCDE902010BA00CC8029801F0A6FD2F
:10215000CDE9000101F01CFDEDE700000020014089
:10216000AC012442000024420010024000000000A4
:102170000000E43F000000000000244010B50246CB
:10218000134614461A4643FA01F0C3B203FA01F0AB
:10219000C3B2C1F10800224604FA00F0C4B2C1F192
:1021A000080044FA00F0C4B21819C0B210BD0246CB
:1021B0000E2A70D2DFE802F086071019222B353F75
:1021C00049535D67727CBA48405C10F0080F01D13A
:1021D000002070470120FCE7B548405C10F0040F78
:1021E00001D10020F5E70120F3E7B148405C10F091
:1021F000020F01D10020ECE70120EAE7AC48405C87
:1022000010F0010F01D10020E3E70120E1E7A84B26
:10221000481C185C10F0800F01D10020D9E7012084
:10222000D7E7A34B481C185C10F0400F01D10020E9
:10223000CFE70120CDE79E4B481C185C10F0200F23
:1022400001D10020C5E70120C3E7994B481C185C69
:1022500010F0100F01D10020BBE70120B9E7944B2B
:10226000481C185C10F0080F01D10020B1E70120D4
:10227000AFE78F4B481C185C10F0040F01D1002011
:10228000A7E70120A5E78A4B481C185C10F0020F55
:1022900002D100209DE715E001209AE7844B481CFD
:1022A000185C10F0010F01D1002092E7012090E7A7
:1022B0007F4B881C185C10F0800F01D1002088E74C
:1022C000012086E7002084E72DE9FF4F83B00C460C
:1022D00015461E46039828B904F1630000EB400040
:1022E000019003E0601E00EB4000019070490198EE
:1022F000801C085C00F0600705213846FFF73EFFB0
:1023000007466B490198801C085C00F01F08012FEC
:1023100004D1A8F10100C0B2029003E008F11E0050
:10232000C0B202900A2D06DA681E6249085C304489
:10233000A0F1010A08E0A5F10A005E49093131F86F
:1023400010003044A0F1010A022D09DDE11704EB71
:1023500091718910B4EB810102D10CB10AF1010A2B
:102360000298824542D30298AAEB000A0125A946A9
:10237000019881B24846FFF71AFF8346002000907B
:10238000BBF1000F01D11D2700E01E27484801992D
:10239000405C00F0F00804214046FFF7EFFE804665
:1023A0001EE0AAEB070A09F1010000F0FF0945450C
:1023B00008D10098C043C0B20090009820B9681CB2
:1023C000C5B201E0681CC5B2019881B24846FFF76A
:1023D000EEFE8346BBF1000F01D11D2700E01E2752
:1023E000BA45DED20AF10100C6B254E00298A0EB71
:1023F0000A00C0B202901CB963240120039001E0DE
:10240000601EC4B20198C01E01900C252849019895
:10241000085C00F0F00804214046FFF7AFFE80465C
:10242000B8F1000F01D1A94601E04FF00D090020DD
:102430000090019881B24846FFF7B9FE8346BBF190
:10244000000F01D11D2700E01E271DE00298C01BD0
:10245000C0B20290A9F1010000F0FF09009808B98C
:10246000681EC5B2454503D10098C043C0B2009074
:10247000019881B24846FFF79AFE8346BBF1000FF0
:1024800001D11D2700E01E270298B842DEDC029829
:10249000381A401CC6B208490398087007480470EF
:1024A000074805700748067007B0BDE8F08F0000C8
:1024B00032030020870500209605002098050020A3
:1024C000990500209A050020704700001CB50C46B5
:1024D000134607496A4679440090204600F0F9F80F
:1024E00004460020694600F007F920461CBD0000A4
:1024F0001F0200000FB40A4A0A4910B503AB794421
:10250000029800F0E6F80446054800F009FB20B107
:102510004FF0FF3010BC5DF814FB2046FAE70000D6
:102520000C0000208DE7FFFF10B5431C04E010F8FD
:10253000011B09B9C01A10BD8107F8D14FF0013253
:1025400002C88C1A8C4314EAC211F9D0C01A0A06C8
:1025500001D0C01E10BD0A0401D0801E10BD0902AA
:10256000FCD0401E10BD704770477047704770B573
:102570000446856900683026C10600D42026C007BD
:1025800009D106E0D4E9012130469047206A401C79
:1025900020626D1EF6D570BD70B504468569006871
:1025A000C00709D006E0D4E9012120209047206A25
:1025B000401C20626D1EF6D570BD09684A0501D524
:1025C00040B27047C905FCD500B2704709684A059A
:1025D00001D5C0B27047C905FCD580B2704770B54F
:1025E00005460C46012A01D101200BE0286880062F
:1025F00000D5EA69002000E0401C904202D2215C34
:102600000029F9D1A9692618091AA961296A014482
:1026100028462962FFF7ABFF04E0D5E9012114F851
:10262000010B9047B442F8D32846FFF7B5FF70BDC1
:102630002DE9F0418046002610687529414614A511
:1026400011D0FFF7BAFF002802DA404211A508E0D6
:10265000D8F800108A0701D50FA502E0490704D574
:102660000EA5012601E0FFF7B1FF002408F12407C1
:1026700004E000F065FD30313955641C0028F8D1C4
:1026800033462A4621464046BDE8F04100F091BA63
:10269000000000002D0000002B00000020000000C2
:1026A00011680268006A530501D508700AE0D30575
:1026B00001D5088006E0130602D5C21705C101E066
:1026C000520608600120704701694A1C02610878BF
:1026D000704710B50C46194690B0CDE90242002271
:1026E0000692044A7A44CDE9042001A800F048F992
:1026F00010B010BDE1FFFFFF0A6802F8010B0A608D
:10270000704700002DE9FF5F04468A461546DFF852
:10271000A880F8440027D8E900013E46CDE902012F
:1027200010E03AF81610684602AA00F0E9FC411CD5
:1027300007D02168890603D5E269391891420DD87E
:102740000744761C2068800602D5E069B84205DDA2
:10275000AE42E6DB3AF816000028E2D1A069C01BC1
:10276000A0612046FFF703FFD8E90001CDE902018F
:10277000002015E03AF81810684602AA00F0C0FCE4
:102780008146401C0AD0EB46002505E0D4E9012132
:102790001BF8050090476D1C4D45F7D308F101006B
:1027A000B0428046E6DB206A384420622046FFF7CC
:1027B000F3FEBDE8FF9F0000122500002DE9F04761
:1027C00082464FF00008D21D22F00700F52960C8AC
:1027D00019A714D00023E81A76EB030104DA6D423E
:1027E00066EB460615A708E0DAF80000810701D578
:1027F00013A702E0400702D512A74FF001080024FA
:102800000AF1240909E03146284600F08DF93032FA
:1028100005460E4609F80420641C002386EA0301DD
:1028200085EA03000843EED143463A462146504626
:10283000BDE8F04700F0BDB9000000002D00000029
:102840002B000000200000002DE9F003074615468C
:102850001E46002400F124080BE005F0070030308C
:102860004FEAD50545EA467508F80400641C4FEAAE
:10287000D606002386EA030185EA03000843ECD16B
:10288000386811A2010708D500F02000204304D0C9
:10289000F86901230DA2401EF86121463846BDE8C3
:1028A000F00300F086B910B5044621461068FFF722
:1028B0008DFE02462046BDE810400023C4E7D21D2D
:1028C00022F007010CC9BFE7000000003000000043
:1028D0002DE9F00F80468A4615461E460068000521
:1028E00002D5264F7F4402E0244F7F440E37002458
:1028F00008F124090BE005F00F004FEA1515385CCC
:1029000045EA06754FEA161609F80400641C002310
:1029100086EA030185EA03000843ECD13A46D8F879
:102920000000000708D5BAF1700F02D11032012360
:1029300002E00CB11132022321464046BDE8F00FFF
:1029400000F037B970B504460D4621461068FFF710
:102950003DFE024629462046BDE870400023B7E709
:10296000D21D22F007030CCBB2E70368126843F0D4
:10297000200303600823C3610023A9E74823000064
:102980002DE9F05F4FF0000B054689464FF0010A34
:10299000C0F820B02846E968884700287ED025285E
:1029A00002D0D5E90121B0E05C4F00267F442846E3
:1029B000E96888472028044607DB312C05D23819FE
:1029C00010F8200C08B10643F1E7B00701D526F056
:1029D0000406C5F81CB00027C5F818B02A2C10D181
:1029E000284659F8041B05EB87029161E96888477E
:1029F000012F044628D1E869002830DA26F02006A5
:102A00002DE0A4F1300052460A2801461AD2CAB17C
:102A100005EB870092468046816108E0D8F81800EF
:102A200000EB800004EB40003038C8F8180028465E
:102A3000E968884704465046A4F130010A2901D2CA
:102A40000028EBD1012F0AD02E2C08D12846E968A6
:102A500088477F1C0446022F46F02006BEDBA8698B
:102A6000002803DA404246F00106A861F00701D0D1
:102A700026F010066C2C01D0682C18D12746284669
:102A8000E9688847B84204460BD180206C2F00D0FB
:102A9000C000E96806432846884700E03AE004465B
:102AA00015E040206C2F00D0800006430FE04C2C36
:102AB00005D06A2C03D0742C01D07A2C07D158464B
:102AC0004C2CE6D080206A2CE3D00020E1E70CB348
:102AD000A4F14100192802D8203446F400664A4681
:102AE000214628462E604E46FDF77CFB50B101285A
:102AF00002D106F104094DE7F61D26F0070000F1AA
:102B0000080947E7D5E9012120469047286A401C7B
:102B100028623FE7286ABDE8F09F0000A822000075
:102B2000C06800F08000704730B5B0F10A024FEA8B
:102B3000900E71F100034EEA817EB0EB0E0061EB66
:102B400091014FEA101E4EEA017E10EB0E0041EBA0
:102B500011114FEA102E4EEA016E10EB0E0041EB00
:102B600011214FEA104E4EEA014E10EB0E0041EBE0
:102B70001141401841F100014FEAD00040EA417094
:102B80004FEAD10110EB80054FEA810444EA9074CA
:102B900044EB01046D1944EB0404521BA3414FF0B4
:102BA000000348BF0A3200D530BD401C41F100018E
:102BB00030BD2DE9F0470D4604469246994600F196
:102BC00024080168880604D5E06921F0100121601D
:102BD00000E001200027A84200DD471BA1697A1907
:102BE00002EB0900081AA0612068C00602D4204642
:102BF000FFF7BDFC002608E0D4E901211AF8060021
:102C00009047206A401C761C20624E45F4DB206809
:102C1000C0060AD52046FFF7AAFC06E0D4E9012148
:102C200030209047206A401C2062381EA7F101071F
:102C3000F4DC07E0D4E9012118F805009047206A88
:102C4000401C2062281EA5F10105F3DC2046FFF799
:102C5000A3FC21680220090600D40120BDE8F0870A
:102C600070472DE9FF4F0C4698468DB0D2E9001011
:102C7000DDF868A0CDE90810C0F30A550DB94FF092
:102C8000FF35002108464FF00000099900F440008C
:102C9000002905DA00EB80004FF4400101EA500002
:102CA0004FEA905BBBF1010F01DD4FF0FF3BDDE927
:102CB000080150EA410016D1BAF1010F02D16FEAC2
:102CC000080207E0302101E02154401C4045FBDBB5
:102CD00040460022002121540D99C1E9010A0A60F1
:102CE00011B0BDE8F08FA5F2FF3544F61050454312
:102CF000CBF100000B904FEA2549BAF1000F03D148
:102D0000A9EB08056D1C01E0C8F100050B9A002D28
:102D100000DC5A46294601DAC5F1000103A800F09B
:102D200089FADDE9081000F037FBA0F500501F38E4
:102D30008DE807000398002D09DD42F21F015A4675
:102D4000084403A90390684600F097FD08E0A0F549
:102D500000505A461F3803A90390684600F0A1FDB1
:102D60008DE807000004000C03D04FF0FF356E081B
:102D700001E00E461546BAF1000F25D1474607E09F
:102D800031462846FFF7D0FE303205460E46E25562
:102D90007F1EF5D50023012786EA030185EA03009B
:102DA0000843CDF81C8003D0002709F1010005E09D
:102DB0002078302803D10027A9F101008146002F97
:102DC000CDF8189099D034E000200A9007460AE028
:102DD000112F0FDA31462846FFF7A6FE303205469E
:102DE0000E46E2557F1C002386EA030185EA0300B4
:102DF0000843EDD1002386EA030185EA0300084376
:102E000010D13846002104E0235C625C6354491C05
:102E10002254401E8142F7DBA7EB0800401ECDE99B
:102E2000060706E00A9820B94FF011084FF0000A93
:102E300063E7079A0020A0540D98C0F808A00799EE
:102E40004160069901604BE72DE9F04F0446884642
:102E5000D21D22F0070091B0D0E90010CDE9021098
:102E60000146029800F053FE0399CA0F4FF02D015E
:102E700006D122682B21930702D4202101EAC20146
:102E800003288B4601D0072806DB5B4602464146F5
:102E9000204600F091F905E12068800601D5E76938
:102EA00000E006271120B8F1650F1ED0B8F1660FBB
:102EB00029D0B8F1670F62D1012F00DA0127002372
:102EC000112F009300DC3846034602AA06A90EA87B
:102ED000FFF7C7FE20683D460026000734D40F9850
:102EE000A84200DA054606A827E00023112F009328
:102EF00000DA781C034602AA06A90EA8FFF7B1FE65
:102F000000267D1C26E001234FF0004902AA06A9F5
:102F10000EA800933B46FFF7A4FEDDE90F50002604
:102F200010B90E99781C0D18781B02D47D1CC0F1C5
:102F3000FF36A5EB070A22E06D1E012D04DD4119C5
:102F400011F8011C3029F7D00E98B84202DA10F1BE
:102F5000040F03DA4FF0010A0E980FE0002802DC9C
:102F60002D1A064404E0401CA84201DD0E9D6D1C94
:102F70000E98801B00F1010A4FF000408146206846
:102F8000000703D4AA4501DB4FF0FF3A0020B9F156
:102F9000004F0DF117078DF8170024D04FF00208ED
:102FA0002B20B9F1000F01900BDA2D20C9F1000997
:102FB000019006E0484600F0C3F83031814607F83A
:102FC000011DB8F10000A8F10108F3DCB9F1000F10
:102FD000F0D1019807F8010D21684520090500D4BA
:102FE000652007F8010D04A8C01B00F107085FEA7F
:102FF0000B0000D00120411901EBEA7101EB080040
:10300000A169081A401EA0612068C00602D42046AB
:10301000FFF7ADFABBF1000F06D05846D4E9012105
:103020009047206A401C20622068C00625D52046B3
:10303000FFF79DFA21E0002E07DB0F98B04204DD78
:1030400006A8D4E90121805D02E0D4E90121302005
:103050009047206A401C2062761CAAF101005FEABA
:10306000000A0AD100F0A2F8C0680168405CD4E907
:1030700001219047206A401C2062281EA5F101050D
:10308000D9DC07E0D4E9012117F8010B9047206A49
:10309000401C2062B8F10000A8F10108F2DC2046D3
:1030A000FFF77AFA02201BE610B5436913B1AFF3BC
:1030B000008001E0FFF793FA012010BD126800F1D3
:1030C00024010A7000224A700122EDE711684FF0D6
:1030D000FF32E9E710B5436913B1AFF3008001E0B7
:1030E000FFF710FB012010BD126800F1240182845B
:1030F0000022C2840122EDE711684FF0FF32E9E7B8
:1031000070B505460C46164600F048F8006890F881
:10311000011101290AD13246D0F80711431821467E
:103120002846BDE8704003F207131847FF2C04D867
:10313000005D10B101202C7070BD4FF0FF3070BDEC
:103140004FF00A01B0FBF1F202FB1101104670478B
:10315000754600F0DDF8AE4605006946534620F09E
:103160000700854618B020B5FDF7BEF8BDE8204041
:103170004FF000064FF000074FF000084FF0000B33
:1031800021F00701AC46ACE8C009ACE8C009ACE8E6
:10319000C009ACE8C0098D467047000010B500F0CA
:1031A00005F8001D10BD0000BD0900000148704772
:1031B00070470000780A00202DE9F04104461F46C0
:1031C00003260168072A01F4006003DB15A520B976
:1031D00015A502E015A500B915A521F01000206085
:1031E000A069C01EA0610FB1401EA0612046FFF77C
:1031F000BEF90FB9206A06E0D4E9012138469047AC
:10320000206A401C2062C01C206204E0D4E9012135
:1032100015F8010B9047761EF8D22046FFF7BCF94F
:10322000BDE8F0814E414E006E616E00494E460091
:10323000696E66002DE9F047174681468AB0304A2C
:103240007A4407A838CA01F5DC511B3138C038CAA6
:1032500004A8372238C091FBF2F0A0F1800502FBF0
:1032600010141B3C02D56442012000E00020DFF86E
:1032700090A080460026FA44AAF1B20A0DE0E007C9
:1032800009D03A4606EB46000AEB800107A800F099
:1032900008FB07AB07C36410761C002CEFD1DFF8E6
:1032A00060A001AEFA44AAF1A40A16E0E80712D021
:1032B0000AEB041090E80E0086E80E00C068F842A1
:1032C00002D10398384403903A4601A904A800F0BB
:1032D000E8FA04AB07C36D10641C002DE6D13A4632
:1032E000B8F1000F07A904A802D000F0C6FA01E067
:1032F00000F0D7FAA9E807000AB0BDE8F08700009F
:10330000A41A00000446AFF300802046FCF7CFFF6C
:1033100000487047580A00204FF0013C50F8042B39
:1033200051F8043B9A4221D1A2EB0C03934313EAD8
:10333000CC1317D150F8042B51F8043B9A4215D105
:10334000A2EB0C03934313EACC130BD150F8042BDC
:1033500051F8043B9A4209D1A2EB0C03934313EAC0
:10336000CC13DBD04FF0000070470000D01A01BA38
:10337000B1FA81F101F0180122FA01F0CB40C1F15C
:103380002001DBB2C0B2C01A2CFA01F3D11A91436A
:1033900011EAC311E6D170475FEA400C08BF91F013
:1033A000000F4FEA8C234FEAC12243EA51514FEA02
:1033B0001C5018BF00F5F0404FEA300018BF41F034
:1033C00000415FEA6C5C00F02980BCF1FF3F08BF60
:1033D00040F080407047130C06BF12044FF0100CF1
:1033E0004FF0000C130E04BF12020CF1080C130F67
:1033F00004BF12010CF1040C930F04BF92000CF1F6
:10340000020CD30F04BF52000CF1010C11464FF017
:103410000002A0F11F00A0EB0C00704711F0004F5C
:1034200008BF704731F000413FF4D5AF0B0C06BF29
:1034300009044FF0100C4FF0000C0B0E04BF0902F2
:103440000CF1080C0B0F04BF09010CF1040C8B0FDD
:1034500004BF89000CF1020CCB0F04BF49000CF132
:10346000010CCCF12003A0EB0C0022FA03F302FACA
:103470000CF241EA030100F10100704720F07F4C9B
:1034800080EA030023F07F47ACEB070303F57C538E
:1034900000F0004003F1FF032DE980494FEA154B8E
:1034A00009B44FEA144325EA0B4E24EA03480FF20D
:1034B000042606EB132749083E785FEA320203FB35
:1034C0000667C7F5000707FB06F64FEA54374FEAD1
:1034D000D64606F1020607FB066CCCF1005C4FEA0B
:1034E0001C472CEA074C07FB06F40CFB06F504EB23
:1034F00015464FEA961634BF00204FF000404FEAC1
:10350000D13706FB07FC4FEA1C4C0CFB0BF7D21B18
:1035100003FB0CF761EB07010CFB0EF7B0EB074068
:1035200072EB17420CFB08F734BFA2EB0742B2EB79
:10353000074261EB17414FEA0C444FEA910706FB43
:1035400007FC4FEA1C4C0CFB0BF7B0EBC74072EBCF
:10355000573203FB0CF734BFA2EBC742B2EBC742B2
:1035600061EB57310CFB0EF7B0EBC70072EB5772F3
:103570000CFB08F734BFA2EBC702B2EBC70261EB4A
:103580005771039F4FEA816141EA921104EBCC0429
:103590004FEAD1374FEA826206FB07FC42EA9012FB
:1035A0004FEA80604FEA1C4C0CFB0BF7D21B03FB6D
:1035B0000CF761EB07010CFB0EF7B0EB074072EB69
:1035C00017420CFB08F734BFA2EB0742B2EB0742ED
:1035D00061EB17414FEA8C554FEA910704EB9C24AD
:1035E00006FB07FC4FEA1C4C0CFB0BF7B0EBC7408B
:1035F00072EB573203FB0CF734BFA2EBC742B2EBBE
:10360000C74261EB57310CFB0EF7B0EBC70072EB12
:1036100057720CFB08F734BFA2EBC702B2EBC7022C
:1036200061EB577115EB4C254FEA816141EA92112C
:103630004FEA82624FEAD13742EA901206FB07FC5A
:1036400044F100044FEA80604FEA1C4C0CFB0BF77E
:10365000D21B03FB0CF761EB07010CFB0EF7B0EB81
:10366000074072EB17420CFB08F734BFA2EB07428E
:10367000B2EB074261EB174115EB1C154FEA8131A4
:1036800041EA92414FEA823242EA90424FEA803068
:103690004FEA0C7644F1000448EA03434EEA0B4833
:1036A0004FF0000EB2EB080C71EB030724BF62462B
:1036B00039464EEB0E0E4FF0000B001852414941B7
:1036C0004BEB0B0BB2EB080C71EB03077BF1000B20
:1036D00024BF624639464EEB0E0E4FF0000B001829
:1036E000524149414BEB0B0BB2EB080C71EB03075A
:1036F0007BF1000B24BF624639464EEB0E0E51EAB9
:10370000020718BF46F0010616EB0E7655F10002CF
:1037100054F1000103D5BDE88901BDE80088BDE88A
:103720008901BDE80048B619524141EB0101A3F1FE
:103730000103704780807F7E7D7C7B7A7978777605
:1037400076757473727171706F6E6E6D6C6C6B6A7E
:103750006A6968686766666564646363626161601C
:10376000605F5F5E5E5D5D5C5C5B5B5A5A59595899
:103770005857575656555555545453535252525103
:10378000515050504F4F4F4E4E4D4D4D4C4C4C4B59
:103790004B4B4A4A4A4949494848484747474746A0
:1037A00046464545454444444443434343424242DC
:1037B00042414141002B26D4770021D01CB54FEA6D
:1037C000370703B44FF010004FF010014FF0000026
:1037D0000FBCBDE810400BF1010BBBF1010F08BF9E
:1037E0005FEA170722BF12F1010211F101014FF048
:1037F000004143F1000300F0004043EA000070473D
:10380000F9D35708DAE746EA064613F1400F4FEAC4
:1038100016461FDD13F1200FDFBF16430A460021B5
:1038200020335B42C8D0C3F1200746EA064602FABD
:1038300007F74FEA164646EA0706C3F1200722FAC1
:1038400003F201FA07F721FA03F14FF0000342EA0D
:103850000702B1E746EA020646EA06464FEA16467E
:1038600046EA0106BCBF46EA0646360C4FF00003A6
:103870004FF000024FF000019EE72DE9C04893464B
:1038800030B491E8380007C831EA400C48BF34EA48
:10389000430C03D5FFF7F2FDFFF78CFFF0BCBDE84A
:1038A00000882DE9C048934630B491E8380007C835
:1038B00010F0804F08BF13F0804F03D100F005F8DF
:1038C000FFF778FFF0BCBDE8008820F07F4780EA72
:1038D000030023F07F4C07EB0C03A3F57C5300F0AF
:1038E0000040A3F1FE0392F0000F00F0B38095F0CA
:1038F000000F00F077802DE901494FEA11404FEAAF
:10390000144621EA004800FB06FC24EA064708FBAF
:1039100006F607FB08F800FB07F718EB06484CEB28
:10392000164C4FEA124B18EB07484FEA15464CEB82
:10393000174022EA0B4E0BFB06FC25EA06470EFB5E
:1039400006F607FB0EFE0BFB07F71EEB064E4CEBD5
:10395000164C4FF000061EEB074E4CEB174B18EBC6
:103960000B0840F1000018EB0E0B58EB000840F17B
:1039700000008F1A4FF000013CBFC943661B14BF03
:10398000B5EB040C00213CBFC943F61B4FEA1744BA
:103990004EEA8E0E27EA04454FEA1C4704FB0762F5
:1039A0002CEA074C05FB07F70CFB05F604FB0CFCA7
:1039B00016EB074642EB174216EB0C4642EB1C4255
:1039C0001BEB060658EB0202414146EA9E0601D572
:1039D000BDE80189B619524141EB0101A3F1010390
:1039E000BDE801894FEA14454FEA114724EA05462C
:1039F00021EA074C05FB07F406FB07F70CFB06F171
:103A000005FB0CFC11EB074144EB17444FEA12474E
:103A100011EB0C4144EB1C4422EA074C05FB07F276
:103A200006FB07F70CFB06F605FB0CFC16EB07463E
:103A300042EB174216EB0C4642EB1C456A1854F158
:103A4000000148BF7047B619524141EB0101A3F193
:103A50000103704795F0000F37D04FEA11424FEA4B
:103A6000144721EA024624EA074C02FB07F106FB51
:103A700007F70CFB06F402FB0CFC14EB074441EBCC
:103A800017414FEA154714EB0C4441EB1C4125EA62
:103A9000074C02FB07F506FB07F70CFB06F602FBDB
:103AA0000CFC16EB074645EB174516EB0C4645EBB1
:103AB0001C42121951F1000148BF7047B61952411A
:103AC00041EB0101A3F1010370474FEA14454FEAAE
:103AD000114724EA054621EA074C05FB07F106FBDE
:103AE00007F70CFB06F24FF0000605FB0CFC12EB8F
:103AF000074241EB174112EB0C4251EB1C4148BF0E
:103B00007047921841EB0101A3F10103704749008E
:103B100050EAC12000D004204A0D01D040F001003D
:103B200040F2FF72B2EB515F01D140F00200012878
:103B300000D105207047000010B500290AD0087890
:103B4000002807D005487844FFF7E6FB002801D09D
:103B5000002010BD0248784410BD0000DA110000BA
:103B6000D211000010B500290AD00878002807D02B
:103B700005487844FFF7D0FB002801D0002010BD95
:103B80000248784410BD0000CA110000C2110000B4
:103B900001F0004321F0004181EA410212F0FE4FA2
:103BA00008BF12F4600F00F02880A1F16051B1F558
:103BB000801F1BDB02014FF0404C09D803D208BF25
:103BC0004FF0000C0AE000F000521CEB820C05D410
:103BD00010F100504FF0804C41F10001B1F17F6FC6
:103BE00006DA43EAC10343EA50707047184670474B
:103BF0004FF0FF0243EAC250704711F4801F01D119
:103C000018467047DFF818C041EA030150EA013254
:103C100040F01080AFF3008021F4E0007047000016
:103C20008800000402494FF0000000F0A6BF000029
:103C30000000F87F02494FF0000000F09EBF000036
:103C40000000F87F4FF0807212EB400F98BF12EB2C
:103C5000410F1DD8AFF3008050EA010204D488421E
:103C60000DD6EFF3008070478142EFF3008020F023
:103C7000104038BF40F0004080F3008870474FF09C
:103C8000010238BF022A68BF002AEFF300807047A4
:103C90001CF4502F00F0688400F0A1BF70B5DFF86D
:103CA000ECC33CEA111418BF3CEA131400F09B80EB
:103CB00081EA03050CEA111444EAD5741CEA1315D1
:103CC00018BF11EA0C1F00F074804FEAC1214FEABF
:103CD000C32341EA505143EA5253A4EB050404F1D3
:103CE0007F7441F0004143F000434FEAC0204FEAA7
:103CF000C22200F0A9F846054FEAD02003EB244386
:103D000040EA41504FEAD12101EB035282EAC471EB
:103D100016D05FEA460E38BF4FF0404610D314BFAE
:103D200000234FF0004350F1000041F1000110EA80
:103D3000D37F4FF0804620EAD37018BF4FF0404643
:103D400091EAC47FDFF848E316D412EA0E0F18BFD9
:103D50003EEA010E10D070BDE50754BF1EF4000FFF
:103D60001EF4800F0ABF4FF080464FF0404610F11E
:103D7000010041F10001E3E7B4F1806FDEBF01F122
:103D8000C04101F00041002000DC70BDA8BFA1F1DE
:103D9000C04146F0140CA8BF4CF0805CBDE87040F8
:103DA0006FF0000041EA500181EA10314FF000004D
:103DB000704711EA0C1F00D00AE013EA0C1F00F054
:103DC0003D804FF0000081EA030101F0004170BD29
:103DD0006FF0000081EA030141EA500181EA1031ED
:103DE0004FF0000070BD4FEA410EBEEB4C1F4FEA92
:103DF000430508BF002898BFB5EB4C1F08BF002A39
:103E0000BDE87040DFF88CC23FF60CAFAFF3008026
:103E10004FF4001C1CEB410F09D11CEB430F0FD0DA
:103E20004B4021F0004148BF41F0004170474FF046
:103E3000000081EA030303F000417047BDE87040D1
:103E40004FF0000094497047E0B5054610B40C46A9
:103E50000FF238114FEA430C4FF0010E4FEA9C6C01
:103E600051F82CC04FF00001ACFB02604FF000068F
:103E7000ECFB0301001841EB0101301A66EB010174
:103E8000E1FB0C6C4FF00001ACFB02604FF0000650
:103E9000ECFB0301001841EB0101301A66EB010154
:103EA000E1FB0C6C4FF00001ACFB0560ECFB040186
:103EB000A2FB0167E3FB006E17EB0E074FF0000E4D
:103EC000E3FB017E4EF1000EB6197F414EEB0E0E64
:103ED000764275EB070764EB0E0EECFB0E01ACFBB4
:103EE00007E64FF0000E801941F10001A2FB0067C8
:103EF000B619E2FB017EE3FB007E7F4103FB01EE8E
:103F00004EEB0E0E76424FF0000676EB070765EBA0
:103F10000E0EACFB0E674FF0000E4FEA857C4FEAA9
:103F20009505C01941F1000145EA847549084FEA39
:103F30003000A2FB00677642E2FB017EE3FB007EDD
:103F40007CEB070703FB01EE65EB0E0EB51A77EB72
:103F500003047EF1000E24BF2E46274650F10000D8
:103F600041F10001012E38BF012F404141EB010119
:103F700011F0004F18BF022301D0F0BC00BDF0BC0F
:103F80004FF00103001841EB010100BDFCC00FFC24
:103F9000830F3EF85F8D89F4F0F0F0F0B50373ED18
:103FA000EAA00EEA48B4C2E6E3388EE31C3870E0BB
:103FB000A6C867DDA70D74DAE53594D7037BC7D4AF
:103FC000D2200DD2A87464CFCCCCCCCCE68745CA25
:103FD0007C0CCEC77BC865C5C3300CC3C0C0C0C095
:103FE0000BFA82BE0B6452BCA28B2EBAE00217B849
:103FF000B6600BB6B4400BB4C84216B2020B2CB07C
:104000005C414CAE849176ACAAAAAAAA573FE8A814
:1040100039052FA702B57EA53D0AD7A32BC337A22A
:10402000A0A0A0A0E765119F9DD8899D9CC0099C78
:10403000D9E7909A511A1F99ED25B4976CDA4F96EB
:104040004F09F294C4859A939224499209BCFD9039
:10405000EE23B88F6D35788E08CB3D8D8CC0088CE3
:10406000FBF2D88A8940AE89888888885FAB6787E9
:104070007D8A4B865308348542082184976E1283CB
:104080008220088208040281000000800000FF07EF
:104090000000F07F140000040000F87F4FEAC12305
:1040A00003B40A1543EA505318BF43F000430DD43C
:1040B000A2F56072D2F19E0240F32180FF2ACCBFAC
:1040C000002123FA02F1084602B070474FEA42523B
:1040D000520D08BF23F000434FF00001A2F56072BB
:1040E000D2F19E020BDBFF2ADCBF23FA02FCA1EB1C
:1040F0000C010029DEBF02B008467047FFE703BC91
:10410000DFF830C0012841EB010313F5001F88BF21
:104110004CF4803C3FF68EAD3EBF6FEAE17080F01C
:1041200000407047AFF300806FEAE17080F000401C
:1041300070470000C800020410F0004314BF414261
:10414000014643F08043B1FA81FC03F1F87311FAA0
:104150000CF1A3EB0C534FEA415008BF704703EB3F
:10416000E1217047DFF8B4C170B53CEA111E18BFF9
:104170003CEA131E00F0A68081EA03050CEA111E3A
:104180004EEAD57E1CEA131518BF11EA0C1F00F089
:104190008F80AE4421EA4C1123EA4C13AEF17F7EAE
:1041A00041F4801143F48013A1FB024CA0FB036592
:1041B000361955EB0C05A1FB034C4CF10003A0FB99
:1041C000021C16EB0C06654153F10003094218BFAF
:1041D00046F001064FF0140CB3F5007F4CF1000CD3
:1041E000CCF1200425FA0CF203FA04F141EA0201B1
:1041F00005FA04F026FA0CF240EA02006FF003021E
:1042000042EB2E4216FA04F401EB025585EACE7118
:1042100015D05FEA440C38BF4FF040440FD308BFBD
:1042200043F0004350F1000041F1000110EAD37F58
:104230004FF0804420EAD37018BF4FF0404415F08F
:10424000004FDFF8DCC017D415EA0C0F18BF3CEAAA
:10425000010C11D070BD5FEACE7454BF1CF4000F86
:104260001CF4800F0ABF4FF080444FF0404410F11F
:10427000010041F10001E2E7BEF1806FA2BFA1F1B0
:10428000C04144F0130C4CF0805CBDE8704006DA8D
:104290004FF0000001F1C04101F0004170476FF0A4
:1042A000000041EA500181EA10314FF000007047F0
:1042B0004FEACE714FF0000070BD4FEACE714FF063
:1042C000000070BD4FEA4105B5EB4C1F4FEA4306B5
:1042D00008BF002898BFB6EB4C1F08BF002ABDE8F6
:1042E0007040DFF840C03FF69DACAFF300804FF464
:1042F000001CBCEB410F98BFBCEB430F0AD84FF03A
:10430000000081EA030101F0004141F0FE4141F467
:104310007001704704494FF0000070470000FF072C
:104320000000F07F130000040000F87F094248BF3E
:104330004CF4803C4FF4C0634FEA115203F1010387
:1043400021EA025122F400629A1A48BF6FF0FE027D
:1043500041F48011352A3CD830D0152A1ED3203A9A
:104360000CD90028C2F1200321FA02F001FA03F26D
:1043700018BF42F001024FF0000130E0C2F100032B
:1043800002F1200201FA03F120FA02F241EA0201ED
:1043900000FA03F208464FF0000120E0C2F12003CA
:1043A00010B400FA03F401FA03F320FA02F021FA40
:1043B00002F1224610BC43EA000010E050EA01324C
:1043C0004FF000004FF000014FF0004218BF521CA8
:1043D00005E04FF001024FF000014FF000001CF427
:1043E000803F2CF4803C18BF41F00041124208BFCE
:1043F0007047520003D303D0401C41F100017047C5
:104400005FEAAC72F8D4FAD1401C41F1000120F00F
:104410000100F4E77047704700F5000C1CF0FE4FF8
:1044200009D0C1104FEA407001F1605158BF704788
:10443000A1F1E04170471CF4000F08D00146400094
:1044400008BF70474FF000004FEA30017047DFF8B7
:1044500014C0420240F08E80AFF3008040F4E001CF
:10446000104670471800000490EA010F48BF81F021
:10447000004100F1B282421A3CBF801A89184FEA0B
:10448000D0524FF07F4C1CEA410FA2EBD15318BF22
:104490009CEA026F00F040804FF0004C4CEA002094
:1044A0004CEA012121FA03FC10EB0C0C23D202F19F
:1044B000FF325FEA1C2040EBC25038BF70471CF04F
:1044C0007F0F4FEA400C18BFBCF17F4F38BF7047D9
:1044D000C3F12003994008BF20F00100BCF17F4FD9
:1044E00038BF7047A0F1C0404FF0FF0141EAD05102
:1044F0004FEAC15070474FEA3C00000A40EBC250FF
:1045000028BF1CF0FF0F4FEA400CE1D018BFBCF1F0
:104510007F4F38BF7047E5E79CEA026F05D010EA8D
:104520005C0F08BF00F000407047BCEB410F4FEA42
:10453000400228BF9445DFF828C0C0F01580AFF3D3
:104540000080B2EB410F05D012F1807F08BF7047A9
:104550000846704790EA010F58BF704701487047FE
:10456000010000040000C07F014800F006BB00000D
:104570000000C07F014800F000BB00000000C07FC9
:104580004FF47F0C1CEAD0121EBF1CEAD11392EA32
:104590000C0F93EA0C0F00F0A58090EA010F48BFC2
:1045A00042F4807240F4000C41F400002CF07F4192
:1045B00020F07F4000B58142A2EB03020FF2401CC5
:1045C000ACEB504EC0F100009EF800E04FEA4E0EFA
:1045D00000FB0EFC38BF49004FEA2C1C02F5FA0222
:1045E0000CFB0EF34FEACE1E4FEA112C4FEAC1210D
:1045F0000EEB635E0EFB0CFC4FEA1C5300FB031139
:104600004FEA112C4FEA01310EFB0CFC02F4807EC4
:1046100042EB22424FEADC4C00FB0C11C14228BFA6
:1046200009184CEB0333012924BF4EF0020E4EF063
:10463000804E10EB410F24BF4EF0010E4EF0804E25
:1046400008BF4EF0040E4EF008015DF804EB43EB9A
:10465000C25018BFB2F57C0F38BF704741EAC07135
:1046600008BF20F00100B2F57C0F38BF704729D594
:1046700012F0F00F1CBF00F1C04000F00040704786
:10468000008182838485868788898B8C8D8E8F912B
:104690009293959697999A9C9D9FA0A2A3A5A7A84F
:1046A000AAACAEB0B2B3B5B7B9BCBEC0C2C5C7C97B
:1046B000CCCED1D4D7D9DCDFE2E6E9ECF0F3F7FADF
:1046C000FE0000004FEA400C0CF1807CBCF17E4FF4
:1046D00028BF7047B0F1C0404FF07F404CBF401042
:1046E0004008704790EA010F0CEAD11348BF42F42A
:1046F0008072624538BF634507D213F47F0F23D021
:1047000080EA010000F0004070474FF0807C1CEB15
:10471000400F98BF1CEB410FDFF840C03FF624AFBD
:10472000AFF300804FF0807C1CEB400F02BF1CEB0E
:10473000410F0B4870471CEB410F0CBF002020F0CD
:10474000004040EAC250704712F47F0F04BF044893
:10475000704742F0FF004FEAC05070470400000469
:104760000000C07FC2154FEA002318BF43F000438A
:1047700005D4D2F19E020AD323FA02F070474FEA21
:104780004001B1F1FE4F02D24FF000007047DFF858
:1047900028C04FEA4001B1F17F4F88BF4CF4803C04
:1047A0003FF6E8AE1CBF6FEAE0707047AFF30080E1
:1047B0006FEAE070704700006800020410F00042E9
:1047C00018BF404242F08042B0FA80F18840A2EB2C
:1047D000C15202F1786208BF7047410642EB2020C7
:1047E00018BF5FF0806C28BF20F0010070474FF0C9
:1047F0008042FFF7E9BF00004FF47F0C1CEAD012A3
:104800001EBF1CEAD11392EA0C0F93EA0C0F00F0C2
:104810004A8090EA010F48BF42F480724FF0004C8A
:104820004CEA00204CEA01211A44A0FB01C3A2F586
:104830000002BCF1000F18BF43F0010302F4807CBA
:10484000B3F1004F38BF5B0042EB2242180A40EB45
:10485000C25028BF13F07F0F18BFB2F57C0F38BFCE
:10486000704708BF20F00100B2F57C0F38BF7047D9
:104870000BD582F0FF0212F5803FC8BF704700F1F0
:10488000C040D8BF00F00040704700F5000C5FEA60
:104890004C0C48BF7047B0F1C0404FF07F404CBF58
:1048A00040104008704790EA010F0CEAD11348BF4E
:1048B00042F48072624538BF634504D280EA010049
:1048C00000F0004070474FF0807C1CEB400F98BF19
:1048D0001CEB410F4FF0030C4CF0806C3FF644AEE4
:1048E000AFF3008012F47F0F1FBF13F47F0F42F06D
:1048F000FF02D00570470148704700000000C07FEC
:1049000010B412F47F0F4FEA00204FEA012110D1BA
:10491000B0FA80F400FA04F0A2EB044213F47F0F23
:1049200002F5803218BF41F0004100D010BC18BF22
:10493000604740F00040B1FA81F401FA04F1A3EBC2
:10494000044310BC03F580336047000051EA000CBB
:1049500000F113801CF5000F58BFBCF5000F01D407
:104960008142704707D711F5000F58BF10F5000FAF
:1049700015D481427047894270471CF5000F04D559
:10498000BCF5000FF7D5884270474FF0807C1CEBD8
:10499000410F38BF1CEB400F01D28842704781EABB
:1049A000000080EA0101DFF80CC081EA0000FFF797
:1049B00049B900000900160480F0004090EA010F98
:1049C0007FF559AD81F0004100F007B890EA010F82
:1049D00048BF81F000413FF54EAD421A3EBF82F024
:1049E0000042801A89184FEAD0524FF07F4C1CEADF
:1049F000410FA2EBD15318BF9CEA026F4FD04FF08A
:104A0000004C4CEA00204CEA012121FA03FCB0EBF7
:104A10000C0C0FD412F0FE0F18BF5FEA4C001DD52E
:104A2000001240EBC25038BF70471CF03F0F18BF58
:104A300070470BE0A2F101025FEA1C2040EBC2507C
:104A400038BF70471CF07F0F18BF7047C3F12003B9
:104A5000994014BF401E20F0010070474FEA122316
:104A600016D0004204BF002070474FEA9000B0FA11
:104A700080FCA2EB0C02CCF1280C60FA0CF093EA5B
:104A8000122F04BF00EBC25070474FEAC37070474B
:104A90005FEADC1008BF70474FEAC37070479CEABA
:104AA000026F04D010EA5C0F08BF00207047BCEB17
:104AB000410F4FEA400228BF9445DFF82CC0FFF4B5
:104AC00053ADAFF30080B2EB410F06D012F1807FFF
:104AD00008BF704781F00040704790EA010F48BF5F
:104AE0007047024870470000020000040000C07FC9
:104AF00000F0004343EAD05323F48073C3F1C103B1
:104B000023F0004117291FD8C3F1200310FA03F145
:104B1000C3F1200320F07F4040F4000020FA03F0AE
:104B200003F0004340EA03000DD00B46590009D3BF
:104B300018BF401C06D17FEAE27398BF401C38BF03
:104B400020F0010070477047182903EB912318BF2C
:104B50006FF00041013168BF03F0004009D6400208
:104B600003F0004000F1010004BF12F0004F20F0FC
:104B7000010070477047FEF767B90CF00F03092B6F
:104B800008BF082000F02B800A2B0BD0082B18BF81
:104B9000704708BF1CF0400F0AD04FF000004FF0E4
:104BA000000170471CF0400F18BF4FF000407047E5
:104BB0001CF0100F08D020F0704300F07F4242EA52
:104BC000D3014FEA4370704700F0604021F07F420C
:104BD00042EA000201F07F4040EA727070471CF424
:104BE000801F11D01CF4E02F03D06FEACC314900B4
:104BF00070474FF04050EFF3008222F0704242EADB
:104C0000000282F3008870474FF0000070470003F5
:104C1000030601040602050003051F1C1F1E1F1EBC
:104C20001F1F1E1F1E1F00000000000000000000CC
:104C300030313233343536373839414243444546D2
:104C400040305800303132333435363738396162CC
:104C500063646566403078000400000800000000CE
:104C600000000002000100001000000002400000EF
:104C7000000000A00000000005400000000000C887
:104C8000000000000C4000000000409C00000000FC
:104C9000194000000020BCBE0000000034400000AD
:104CA000BFC91B8E00000004B5400000504BCFD0A0
:104CB0006607E2CF010000006C4100003E8251AA6D
:104CC000DFEEA73401000000D9420000DCB5A0E20D
:104CD0003A301F97FFFFFFFFB4450000FD25A0C835
:104CE000E9A3C14FFFFFFFFFFF3F0000000000806E
:104CF00000000000FF3F00000000008000000000F6
:104D00004C4E0008000000209C0500006C010008CB
:104D1000E45100089C0500201C0D0000C80100089B
:104D20001C00000043000000F8FFFFFF0C00000023
:104D30000E0000000F0000002E0000001001000017
:104D400043000000F8FFFFFF00404040404040406B
:104D5000404041414141414040404040404040404E
:104D600040404040404040404005020202020202F2
:104D70000202020202020202022020202020202041
:104D80002020200202020202020290909090909055
:104D90001010101010101010101010101010101013
:104DA0001010101002020202020288888888888887
:104DB0000808080808080808080808080808080873
:104DC000080808080202020240000000000000007B
:104DD00000000000000000000000000000000000D3
:104DE00000000000000000000000000000000000C3
:104DF00000000000000000000000000000000000B3
:104E000000000000000000000000000000000000A2
:104E10000000000000000000000000000000000092
:104E20000000000000000000000000000000000082
:104E30000000000000000000000000000000000072
:104E40000000000000000000000000000114580DE8
:104E50000FF01FF83FFC7FFE7C3E781E021A3E02D8
:104E60001A5E0218099E789E791E791E7A021A7CB3
:104E7000026920500B7C3E7FFE3FFC1FF80FF012B2
:104E80003812781BF801021908092E02091480391A
:104E90008411127E180DFC01F803F007E00FC01F0B
:104EA000803F0F6A7C374C1E7FFE02091640112995
:104EB000021E3E0FFC0FF80212FC2A3E10891ED97A
:104EC000C0121C1A3C5B1A7C6E1902180C03FC07FA
:104ED000BC07BC0F3C0F3C1E0229013A78027972D4
:104EE000BA3C0231691A89D51E7BF07FF87F924E59
:104EF0007E3E7C1E7C8CA9DAD980F9C0B944A9D643
:104F0000091440798029682994293F12F0080C1867
:104F1000F001E001E003C003C007800209138059DB
:104F2000642962291A091082091DC0E92A1EFE1F80
:104F3000FE0FDE9C1902091240A18B07E00201104E
:104F400009181C12301248100C49C033E806380CFE
:104F5000180C080C49023E06080310012A8F018034
:104F6000024002C004000D1003C007E00FF00FF074
:104F700007E003C0E9922100FF0004AE530A57483E
:104F80005526BD0D26500D954446AAB9056A4D0912
:104F9000AD4224AEB604AE4A6A4DBE0A4D520D254E
:104FA000465D52BA0B544E0D6A43296D37095B4B6F
:104FB000749BC10497540A4B485B25BC06A5500658
:104FC000D4454ADAB802B64D0957422497B7049738
:104FD0004A664B3E0D4A510EA54656D4BA05AD4E13
:104FE00002B644393738092E4B7C96BF0C95530DC9
:104FF0004A486DA53B0B554F056A454AADB9025D60
:105000004D092D422C95B60A954A7B4ABD06CA51D8
:105010000B5546555ABB04DA4E0A5B43352BB8058F
:105020002B4C8A953F0E955206AA487AD53C0AB574
:105030004F04B6454A57390A574D0526423E933527
:105040000D954975AABE056A51096D4654AEBB045B
:10505000AD4F0A4D434D26B70D254B8D52BF0B5416
:10506000520B6A47696D3C095B50049B454A4BB93A
:105070000A4B4DAB25C206A500FF005406D4496A71
:10508000DA3D0AB6510937465497BB04974F064B91
:105090004436A5370EA54A86B2BF05AC530AB647BB
:1050A0005936BC092E500C96454D4AB80D4A4C0D48
:1050B000A54125AAB6056A497AADBD025D52092D02
:1050C000475C95BA0A954E0B4A434B55370AD54A69
:1050D000955ABF04BA530A5B48652BBC052B500A8E
:1050E0009345474AB906AA4C0AD54124DAB604B614
:1050F0004A69573D0A4E510D26465E933A0D534D6F
:1051000005AA4336B537096D4BB4AEBF04AD530A9B
:105110004D486D25BC0D254F0D52445DAA380B5AE4
:105120004C056D4124ADB6049B4A7A4BBE0A4B51E7
:105130000AA5465B52BA06D24E0ADA42355B3709F7
:10514000374B8497C1049753064B4866A53C0EA580
:105150004F06B2444AB6380AAE4C092E423C973547
:105160000C96497D4ABD0D4A510DA54555AABA0573
:105170006A4E0A6D43452EB705105A2D4B8A95BFCE
:105180000A95530B4A476B553B0AD54F055A454A7A
:105190005D380A5B4C052B423A93B6069349772952
:1051A000BD06AA510AD54654DABA04B64E0A574388
:1051B0004527380D264A8E933E0D52520DAA47665A
:1051C000B53B056D4F04AE454A4EB90A4D4C0D1521
:1051D000412D92B5600F1F3B5A7897B5D4F311015A
:0451E00030014E014B
:0400000508000131BD
:00000001FF
