:0A0A12003F065B4F666D7D077F6FA6
:0B09FC00EF1FAC0670011E4C70F622CD
:1009DD0020900F7F647E001209FC209002B2A73098
:0309ED0090FD2258
:10080000E508B4320CE4F5087FD41209C48E118FC8
:10081000120508AE11AF127C037DE812089674121F
:100820002FF582740A3EF583E493F50DAE11AF12F5
:100830007C037DE8120896AA04AB057D647C00AFBA
:1008400003AE0212089674122FF582740A3EF583E5
:10085000E493F50E7D647C00AF03AE02120896AA05
:1008600004AB057D0A7C00AF03AE02120896741239
:100870002FF582740A3EF583E493F50F7D0A7C0020
:10088000AF03AE0212089674122DF582740A3CF57D
:0508900083E493F51064
:010895002240
:1008EB00E4FDED14600E14601314601424037016F1
:1008FB00C2A28002D2A2C2A3C2A4800AC2A2800258
:10090B00D2A2D2A3C2A4740D2DF8E6F5807F647E2B
:0B091B00001209FCE4F5800DBD04C7CC
:0109260022AE
:03000B00020927C0
:04092700C0E0C0D09C
:10092B00758CFC758A18050AE50A70020509B4E88E
:10093B000DE509B40308750900750A00B2A7E50CAB
:0C094B00450B6008E50C150C7002150B44
:05095700D0D0D0E03219
:10095C00438901758CFC758A18D2A9D2AFD28CE56B
:10096C002070047F0180027F008F20D200120800CB
:08097C001208EB1209DD80F501
:0B0A0700C2B6D2B5D2B4D2B6C2B5223E
:1009A800C2B6E4FEEFC4131313540124FF92B4EF4C
:0B09B80025E0FFC2B6D2B60EBE08E973
:0109C3002211
:10098400E4FFFEC2B6FDFCEF25E0FFEE33FED2B677
:10099400C2B6A2B7E43342070DBD00010CED640CEE
:0309A4004C70E4B0
:0109A700222D
:1009C400C2B6C2B51209A87F06DFFED2B60000C2C5
:0809D400B60000120984D2B53F
:0109DC0022F8
:030000000209F002
:0C09F000787FE4F6D8FD75812002095CD8
:10089600BC000BBE0029EF8DF084FFADF022E4CC46
:1008A600F875F008EF2FFFEE33FEEC33FCEE9DEC0F
:1008B600984005FCEE9DFE0FD5F0E9E4CEFD22ED55
:1008C600F8F5F0EE8420D21CFEADF075F008EF2F9F
:1008D600FFED33FD4007985006D5F0F222C398FD90
:0508E6000FD5F0EA222D
:00000001FF
