:1004DC003443101001FEFDFBF7EFDFBF7F205065AA
:0E04EC006368696E20536369656E6365200066
:05000300C10001230013
:10045D00E4FDFCC3ED9FEC9E5015E4FBFA0BBB00D5
:0F046D00010AEB640C4A70F50DBD00010C80E430
:01047C00225D
:10047D00E4FDFCC3ED9FEC9E5015E4FBFA0BBB00B5
:0F048D00010AEB64784A70F50DBD00010C80E4A4
:01049C00223D
:09053400C295D294C293D2902228
:1004BD00E4FEEF30E704D2928002C292EF25E0FF16
:0E04CD00D293309103430701C2930EBE08E4A0
:0104DB0022FE
:10043C007D017F2112044C7F2212044C7D0A7F2403
:10044C00C2941204BDAC07AF051204BDD294AF0424
:01045C00227D
:0C051300C2941204BDE4FF1204BDD29497
:01051F0022B9
:060364008B1A8A1B891CA4
:10036A00C2941204BDAD07E4FCECC3951D5017E41A
:10037A00FF1204BDAB1AAA1BA91C8C82758300EF5D
:0A038A001201490C80E3D294AF0584
:010394002246
:0D028200C2957BFF7A0479DC7564057F303E
:06028F008B618A628963A5
:10029500C2941204BDAD07E4FCECC395645015ABE4
:1002A50061AA62A9638C8275830012011CFF120486
:0802B500BD0C80E5D294AF05F9
:0102BD00221E
:1001F7008B658A6689671202827BFF7A0479DC75D0
:1002070064057F2A12028FAB65AA66A96775640821
:100217007FA012028F12043CE4FD7F2512044C7D5F
:10022700077F2612044C7D0E7F2012044CD2957F47
:06023700057E0002047DBB
:100417007F071205138F56E55620E50330E4137D59
:10042700FF7F2712044CC2947FE11204BDD2947F50
:0504370000227F0122FC
:1002F9001202827BFF7A0479DC7564057F2A120277
:100309008F12043C7D087F3112044CE4FD7F2512D5
:10031900044C7D077F2612044C7D0F7F2012044C6C
:09032900D2957F057E0002047DDF
:100332007F071205138F56E55630E623C2957B00E0
:100342007A007957751D087F611203647DFF7F274C
:1003520012044CC2947FE21204BDD2947F01227F28
:02036200002277
:10049D00759850758921758780758DF3758BF3D29D
:1004AD00ACD2AFD28E758CFC758A18D2A9D28C22A3
:04000E007FE87E0306
:0B001200EF1FAC0670011E4C70F622C0
:10023D0020B10E12000E20B105B2A07F012230B107
:10024D00FD20B00E12000E20B005B2A17F022230AB
:10025D00B1FD20B20E12000E20B205B2A27F032214
:10026D0030B1FD20B30E12000E20B305B2A37F04F2
:05027D002230B1FD225A
:1002BE0078087C007D007BFF7A0479E97E007F114F
:1002CE001200F612049D7F647E0012045D1204FA81
:1002DE00E4F55F7408255FF8E6FF12052A055FE571
:0B02EE005FC3941040ED12023D80FB46
:0300230002039540
:0B039500C0E0C0D075D000C000C00761
:1003A000AF99C29874242523F8A6070523E523D323
:0D03B00094324002D2008F993099FDC2991D
:0903BD00D007D000D0D0D0E0320E
:03000B000203F0FD
:0403F000C0E0C0D0D9
:1003F400758CFC758A180522E52270020521B4E883
:0E0404000DE521B40308752100752200B2A099
:05041200D0D0D0E03263
:1003C600C2A58F807F017E001203D7D2A77F057E4C
:0103D6000026
:1003D700D3EF9400EE9400400F7DC77C01DCFEDD77
:0803E700FAEF1F70EB1E80E825
:0103EF0022EB
:0A052000C2A7C2A61203C6C2A7229A
:0A052A00C2A7D2A61203C6C2A72280
:1004FA007F381205207F0C1205207F061205207F07
:09050A00011205207F800205208A
:0300000002016B8F
:0C016B00787FE4F6D8FD7581670201B2D0
:10002600E709F608DFFA8046E709F208DFFA803EBC
:1000360088828C83E709F0A3DFFA8032E309F608A9
:10004600DFFA8078E309F208DFFA807088828C8311
:10005600E309F0A3DFFA806489828A83E0A3F608C5
:10006600DFFA805889828A83E0A3F208DFFA804C9F
:1000760080D280FA80C680D4806980F28033801076
:1000860080A680EA809A80A880DA80E280CA8033DF
:1000960089828A83ECFAE493A3C8C582C8CCC58357
:1000A600CCF0A3C8C582C8CCC583CCDFE9DEE78027
:1000B6000D89828A83E493A3F608DFF9ECFAA9F0A6
:1000C600EDFB2289828A83ECFAE0A3C8C582C8CCFC
:1000D600C583CCF0A3C8C582C8CCC583CCDFEADE15
:1000E600E880DB89828A83E493A3F208DFF980CC77
:1000F60088F0EF60010E4E60C388F0ED2402B40470
:100106000050B9F582EB2402B4040050AF23234516
:06011600822390007673C5
:10011C00BB010CE58229F582E5833AF583E0225098
:10012C0006E92582F8E622BBFE06E92582F8E222E2
:0D013C00E58229F582E5833AF583E49322FC
:10014900F8BB010DE58229F582E5833AF583E8F0EC
:10015900225006E92582C8F622BBFE05E92582C898
:02016900F22280
:100177000202BEE493A3F8E493A34003F68001F2DE
:1001870008DFF48029E493A3F85407240CC8C33389
:10019700C4540F4420C8834004F456800146F6DF58
:1001A700E4800B0102040810204080900003E47EE5
:1001B700019360BCA3FF543F30E509541FFEE4934D
:1001C700A360010ECF54C025E060A840B8E493A314
:1001D700FAE493A3F8E493A3C8C582C8CAC583CA3F
:1001E700F0A3C8C582C8CAC583CADFE9DEE780BEF7
:0100080000F7
:00000001FF
