:0D06B9003443101001FEFDFBF7EFDFBF7FA3
:05068F00C10001240080
:0806D9008F993099FDC29922AE
:1005F100E4FDFCC3ED9FEC9E5015E4FBFA0BBB0040
:0F060100010AEB640C4A70F50DBD00010C80E49A
:0106100022C7
:040589007F0A7E0067
:10058D00E4FDFCC3ED9FEC9E5015E4FBFA0BBB00A4
:0F059D00010AEB64784A70F50DBD00010C80E493
:0105AC00222C
:0906D000C295D294C293D290228B
:10063100E4FEEF30E704D2928002C292EF25E0FFA0
:0E064100D293309103430701C2930EBE08E42A
:01064F002288
:1005D0007D017F211205E07F221205E07D0A7F2444
:1005E000C294120631AC07AF05120631D294AF04A3
:0105F00022E8
:0C06AC00C294120631E4FF120631D29411
:0106B800221F
:0604B8008B1C8A1D891E49
:1004BE00C294120631AD07E4FCECC3951F5017E44D
:1004CE00FF120631AB1CAA1DA91E8C82758300EF8C
:0A04DE001202130C80E3D294AF0564
:0104E80022F1
:0D036A00C2957BFF7A0679B97566057F3074
:060377008B638A648965B6
:10037D00C294120631AD07E4FCECC395665015AB83
:10038D0063AA64A9658C827583001201E6FF1206CB
:08039D00310C80E5D294AF059C
:0103A5002235
:100328008B678A68896912036A7BFF7A0679B975CF
:1003380066057F2A120377AB67AA68A969756608FC
:100348007FA01203771205D0E4FD7F251205E07D1A
:10035800077F261205E07D0E7F201205E0D2950268
:02036800058D01
:100564007F071206AC8F58E55820E50330E4137D6D
:10057400FF7F271205E0C2947FE1120631D2947FF7
:0505840000227F0122AE
:1003A60012036A7BFF7A0679B97566057F2A1203FE
:1003B600771205D07D087F311205E0E4FD7F251216
:1003C60005E07D077F261205E07D0F7F201205E000
:0903D600D2957F057E0002058D21
:100486007F071206AC8F58E55830E623C2957B00ED
:100496007A007959751F087F611204B87DFF7F279E
:1004A6001205E0C2947FE2120631D2947F01227FC8
:0204B600002222
:10061100759850758921758780758DF3758BF3D227
:10062100ACD2AFD28E758CFC758A18D2A9D28C222D
:1002E40020B10E12058920B105B2A07F012230B1E0
:1002F400FD20B00E12058920B005B2A17F02223084
:10030400B2FD20B20E12058920B205B2A27F0322EB
:1003140030B3FD20B30B12058920B305B2A37F04CB
:04032400227F002212
:100026001206117F647E001205F11206501205AD0C
:100036007F411206D90F1206D9E525700612066908
:100046000200E11202E4BF011805237FE87E0312D5
:1000560005F17F421206D9E523C394074003E4F570
:10006600231202E4EF6402707274082523F8067402
:10007600082523F8E6540FD394094004740626F69F
:1000860074082523F8E6C394604008E523940250DB
:1000960002E4F674082523F8E6C394244007E52312
:1000A600B40202E4F674082523F8E6C39432400746
:1000B600E523B40302E4F674082523F8E6C3941393
:1000C6004007E523B40402E4F674082523F8E6C3E2
:1000D60094074007E523B405027601120173020076
:0100E60036E3
:030023000204E9EB
:0B04E900C0E0C0D075D000C000C0070C
:1004F400AF99C29874262524F8A6070524E524D3C9
:0605040094324002D20017
:09050A00D007D000D0D0D0E032BF
:03000B0002053DAE
:04053D00C0E0C0D08A
:10054100758CFC758A180522E52270020521B4E834
:0E0551000DE521B40308752100752200B2A04B
:05055F00D0D0D0E03215
:0300030002024EA8
:10024E00C0E0C0F0C083C082C0D075D000C000C076
:10025E0001C002C003C004C005C006C00712058954
:10026E0020B2096325FF7523001205AD7F431206E8
:10027E00D9D007D006D005D004D003D002D001D0FB
:0C028E0000D0D0D082D083D0F0D0E0327D
:10051300C2A58F807F017E00120524D2A77F057EAE
:0105230000D7
:10052400D3EF9400EE9400400F7DC77C01DCFEDD28
:08053400FAEF1F70EB1E80E8D6
:01053C00229C
:0A06C600C2A7C2A6120513C2A722A4
:06067F00C4540F2430FFFB
:0A068500C2A7D2A6120513C2A722D5
:100650007F381206C67F0C1206C67F061206C67FBA
:09066000011206C67F800206C6E5
:0803DF008D128B0F8A108911A9
:1003E70012000E8F13E5122480F514FF1206C6E4DF
:1003F700F514E514C395135017AB0FAA10A911856F
:1004070014827583001201E6FF120685051480E247
:0104170022C2
:080418008D188B158A16891757
:1004200012000E8F19E51824C0F51AFF1206C6E453
:10043000F51AE51AC395195017AB15AA16A9178511
:100440001A827583001201E6FF120685051A80E202
:010450002289
:100173007FC01206C6E50A12067FE50A1206807FD3
:100183002D120685E50912067FE5091206807F2DEB
:10019300120685E50812067FE5081206807F8012A5
:1001A30006C67F321206857F30120685E50E1206DB
:1001B3007FE50E1206807F2D120685E50C12067F61
:1001C300E50C1206807F2D120685E50B12067FE5EE
:1001D3000B1206807F8D1206C6E50D54072430FFEF
:0301E3000206858C
:0E069E0081838587898B8D80828486888A8CF3
:0906940007080000120101021325
:10045100C2B500C2B600D2B500E4FEEF1392B4EF0C
:10046100C313FFD2B600C2B6000EBE08EEE4FEED25
:100471001392B4EDC313FDD2B600C2B6000EBE088E
:04048100EEC2B50012
:010485002254
:10029A00C2B500C2B600D2B500E4FDEF1392B4EFC6
:1002AA00C313FFD2B600C2B6000DBD08EE00E4FDCE
:1002BA00A2B4E433FFC43333335480FCEEC3134C8B
:1002CA00FED2B600C2B6000DBD08E5C2B500D2B670
:0902DA0000C2B400D2B400AF066A
:0102E30022F8
:1005AD00E4FD7F8E120451E4FCEC9006A593FF74DC
:1005BD00082CF8E6FD1204510CBC07ED7D807F8EF2
:0305CD00020451D4
:10066900E4FBEB90069E93FF12029A74082BF8A6FE
:05067900070BBB07EDBB
:01067E002259
:030000000200E714
:0C00E700787FE4F6D8FD75816902012ED7
:1001E600BB010CE58229F582E5833AF583E02250CE
:1001F60006E92582F8E622BBFE06E92582F8E22218
:0D020600E58229F582E5833AF583E4932231
:10021300F8BB010DE58229F582E5833AF583E8F021
:10022300225006E92582C8F622BBFE05E92582C8CD
:02023300F222B5
:10000E00E4FFFE120235600C0FEF70010E09E9706D
:05001E00F20A80EF2250
:1000F300020026E493A3F8E493A34003F68001F2FD
:1001030008DFF48029E493A3F85407240CC8C3330D
:10011300C4540F4420C8834004F456800146F6DFDC
:10012300E4800B010204081020408090068FE47ED7
:10013300019360BCA3FF543F30E509541FFEE493D1
:10014300A360010ECF54C025E060A840B8E493A398
:10015300FAE493A3F8E493A3C8C582C8CAC583CAC3
:10016300F0A3C8C582C8CAC583CADFE9DEE780BE7B
:01069D00005C
:10023500BB010689828A83E0225002E722BBFE02C7
:09024500E32289828A83E49322FA
:00000001FF
