:100C5000696E743000206C6564302000206C65641F
:100C60003120003443101001FEFDFBF7EFDFBF7FA2
:050C700000000000007F
:0D0D9300060CC9E3CACFB6C8C100010B00B1
:100D0100E4FDFCC3ED9FEC9E5015E4FBFA0BBB0028
:0F0D1100010AEB640C4A70F50DBD00010C80E483
:010D200022B0
:040C75007F0A7E0074
:100C7900E4FDFCC3ED9FEC9E5015E4FBFA0BBB00B1
:0F0C8900010AEB64784A70F50DBD00010C80E4A0
:010C98002239
:0E0E0F008F993099FDC2997F0A7E00020C79FE
:060B81008B318A3289333A
:100B870012000E8F34E4F535E535C395345017ABB5
:100B970031AA32A9338535827583001203D9FF1232
:060BA7000E0F053580E28F
:010BAD002225
:0404DA008E218F22BE
:1004DE0078237C007D007BFF7A0C79707E007F058F
:1004EE001203B3C3E52164809480501A7F80120EEC
:1004FE00387F2D120E05E52215227002152163227A
:10050E00FF6321FF800A7F80120E387F2B120E05AB
:10051E00AC21AD22EC1202298F2B8E2A8D298C282C
:10052E00E4FFFE7DC87C40AB2BAA2AA929A828127D
:10053E00011EE4FBFAF9783F12002D1202628E21A1
:10054E008F22AE21AF227C277D101204288F23AE7E
:10055E0021AF227C277D101204287E037FE8CFCDA9
:10056E00CFCECCCE1204288F24AE21AF227C037DB9
:10057E00E81204287E007F64CFCDCFCECCCE1204FD
:10058E00288F25AE21AF227C007D641204287E00C8
:10059E007F0ACFCDCFCECCCE1204288F26AE21AF80
:1005AE00227C007D0A1204288D277F82120E38E5E8
:1005BE00232430FF120E057F83120E38E5242430DB
:1005CE00FF120E057F84120E38E5252430FF120E21
:1005DE00057F85120E387F2E120E057F86120E387D
:1005EE00E5262430FF120E057F87120E38E52724EC
:0505FE0030FF020E05B4
:090E4200C290D2B7C2B6D2B322AD
:100D2100E4FEEF30E704D2A28002C2A2EF25E0FF89
:0E0D3100D2B630A003430701C2B60EBE08E4DE
:010D3F002291
:100CE0007D017F21120CF07F22120CF07D0A7F24FF
:100CF000C2B7120D21AC07AF05120D21D2B7AF0458
:010D000022D0
:0C0E2B00C2B7120D21E4FF120D21D2B756
:010E37002298
:060B50008B328A33893468
:100B5600C2B7120D21AD07E4FCECC395355017E47E
:100B6600FF120D21AB32AA33A9348C82758300EFB4
:0A0B76001204060C80E3D2B7AF05AD
:010B80002252
:0D09CC00C2907BFF7A0C79637535057F3092
:0609D9008B328A338934E1
:1009DF00C2B7120D21AD07E4FCECC395355015AB32
:1009EF0032AA33A9348C827583001203D9FF120DFA
:0809FF00210C80E5D2B7AF0521
:010A070022CC
:1008BE008B1D8A1E891F1209CC7BFF7A0C796375FA
:1008CE0035057F2A1209D9AB1DAA1EA91F75350839
:1008DE007FA01209D9120CE0E4FD7F25120CF07DE9
:1008EE00077F26120CF07D0E7F20120CF0D2907F27
:0608FE00057E00020C79EA
:100C2B007F07120E2B8F13E51320E50330E4137DA2
:100C3B00FF7F27120CF0C2B77FE1120D21D2B77FD5
:050C4B0000227F0122E0
:100A08001209CC7BFF7A0C79637535057F2A1209A8
:100A1800D9120CE07D087F31120CF0E4FD7F25121D
:100A28000CF07D077F26120CF07D0F7F20120CF052
:090A3800D2907F057E00020C79CA
:100B1E007F07120E2B8F13E51330E623C2907B0056
:100B2E007A0079147535087F61120B507DFF7F278F
:100B3E00120CF0C2B77FE2120D21D2B77F01227FD5
:020B4E00002283
:10094A0020B10E120C7520B105B2A07F012230B180
:10095A00FD20B00E120C7520B005B2A17F02223024
:10096A00B2FD20B20E120C7520B205B2A27F03228C
:10097A0030B3FD20B30B120C7520B305B2A37F046C
:04098A00227F0022A6
:03002300020C9933
:100C9900C0E0C0D075D000C000C2987457250BF8C9
:100CA900A699050BE50BD394324002D200D000D0AF
:040CB900D0D0E03285
:03000B00020C04E0
:040C0400C0E0C0D0BC
:100C0800758CFC758A180509E50970020508B4E8B1
:0E0C18000DE508B40308750800750900B2A0C8
:050C2600D0D0D0E03247
:03000300020822CE
:10082200C0E0C0F0C083C082C0D075D000C000C09C
:1008320001C002C003C004C005C006C007120C7587
:1008420020B2096312FF750A00120CBDB2A47BFF2D
:100852007A0C7950120B81D007D006D005D004D083
:1008620003D002D001D000D0D0D082D083D0F0D03B
:02087200E03272
:10060300E5127006120DC10206A512094ABF0118B0
:10061300050A7FE87E03120D017F42120E0FE50AE1
:10062300C394074003E4F50A12094AEF64027072A7
:100633007436250AF8067436250AF8E6540FD3945F
:10064300094004740626F67436250AF8E6C3946056
:100653004008E50A94025002E4F67436250AF8E6E7
:10066300C394244007E50AB40202E4F67436250A6B
:10067300F8E6C394324007E50AB40302E4F674369D
:10068300250AF8E6C394134007E50AB40402E4F626
:100693007436250AF8E6C394074007E50AB4050251
:0506A30076010207AF23
:04073400AB07AA065F
:10073800E4F549F54AF54BF54C8E4B8F4CC3EE6406
:100748008094805007C3E49BFBE49AFA7C007D0AFE
:10075800AF03AE02120428ED2430FF054AE54A70C3
:10076800020549142450F8A6077C007D0AAF03AEA1
:1007780002120428AA06AB07D3EB9400EA6480941B
:100788008050C9C3E54B64809480500E054AE54A01
:1007980070020549142450F8762D7450254AF8E45F
:0607A800F6FB7A00795017
:0107AE002228
:100D5E00759850758921758780758DF3758BF3D2D3
:0C0D6E00ACD2AFD28E758CFC758A1822B6
:10090400120D5E7F647E00120D01120D7A7F647EEB
:1009140000120D01120E427F41120E0F120A087FBF
:10092400647E00120C79120B1EEF600DC2A07BFFD7
:100934007A0C7955120B818002D2A07BFF7A0C7954
:060944005C120B8180D162
:100BDA00C2A58F807F017E00120BEBD2A77F057E14
:010BEA00000A
:100BEB00D3EF9400EE9400400F7DC77C01DCFEDD5B
:080BFB00FAEF1F70EB1E80E809
:010C030022CE
:0A0E3800C2A7C2A6120BDAC2A7225D
:060DFF00C4540F2430FF74
:0A0E0500C2A7D2A6120BDAC2A72280
:100D7A007F38120E387F0C120E387F06120E387F1B
:090D8A0001120E387F80020E38C0
:080A41008D408B3D8A3E893F88
:100A490012000E8F41E5402480F542FF120E38E472
:100A5900F542E542C395415017AB3DAA3EA93F85F2
:100A690042827583001203D9FF120E05054280E206
:010A7900225A
:080A7A008D468B438A44894537
:100A820012000E8F47E54624C0F548FF120E38E4E7
:100A9200F548E548C395475017AB43AA44A9458595
:100AA20048827583001203D9FF120E05054880E2C1
:010AB2002221
:1007AF007FC0120E38E538120DFFE538120E007FAC
:1007BF002D120E05E537120DFFE537120E007F2DB6
:1007CF00120E05E536120DFFE536120E007F801270
:1007DF000E387F32120E057F30120E05E53C120DDA
:1007EF00FFE53C120E007F2D120E05E53A120DFFAC
:1007FF00E53A120E007F2D120E05E539120DFFE5B9
:10080F0039120E007F8D120E38E53B54072430FF4E
:03081F00020E05C1
:0E0E1D0081838587898B8D80828486888A8C6C
:090DA000073600001201010213E4
:100AE900C2B500C2B600D2B500E4FEEF1392B4EF6E
:100AF900C313FFD2B600C2B6000EBE08EEE4FEED87
:100B09001392B4EDC313FDD2B600C2B6000EBE08EF
:040B1900EEC2B50073
:010B1D0022B5
:10087400C2B500C2B600D2B500E4FDEF1392B4EFE6
:10088400C313FFD2B600C2B6000DBD08EE00E4FDEE
:10089400A2B4E433FFC43333335480FCEEC3134CAB
:1008A400FED2B600C2B6000DBD08E5C2B500D2B690
:0908B40000C2B400D2B400AF068A
:0108BD002218
:100CBD00E4FD7F8E120AE9E4FCEC900E2493FF74A0
:100CCD00362CF8E6FD120AE90CBC07ED7D807F8E0F
:030CDD00020AE91F
:100DC100E4FBEB900E1D93FF12087474362BF8A60A
:050DD100070BBB07ED5C
:010DD60022FA
:100D4000D3EF9400EE940040147D6E7C00ED1D7096
:0D0D5000011CED4C70F7EF1F70E61E80E3F4
:010D5D002273
:100BAE00C2B77F467E00EF1FAC0670011E4C70F67A
:100BBE00D2B7E4FEFF30B7110FBF00010ED3EF9492
:0B0BCE0088EE941340EF7F00227F01AF
:010BD90022F9
:100AB300E4FBFAC2B7054EE54E7002054DEF139203
:100AC300B7754D00754E06E54E154EAC4D700215CB
:100AD3004D4C70F3D2B7EFC313FF0BBB00010AEB0E
:050AE30064084A70CE1A
:010AE80022EB
:10098E007D087C00C2B70FBF0000D2B70FBF0000BA
:10099E000FBF0000A2B7E433C43333335480FBE9F6
:1009AE00C3134BF97E007F04EF1FAA0670011E4A87
:0D09BE0070F6ED1D70011CED4C70C9AF010D
:0109CB002209
:100DD700120BAE7FC87E00120D017FCC120AB37FC3
:040DE70044020AB305
:100DEB00120BAE7FC87E00120D017FCC120AB37FAF
:040DFB00BE020AB377
:100DAA00E4FFFE120DD7120DEB12098E8F4F1209B6
:060DBA008EEFFEE54FFF85
:010DC0002210
:100026000202CEE86480F8E933E83360110460F038
:10003600ED33EC337009E8FCE9FDEAFEEBFF220440
:1000460060DED3EB9FEA9EE99DE8C2E78CF0C2F73B
:1000560095F0400CE8CCF8E9CDF9EACEFAEBCFFB07
:1000660012029985D0F05804700320D5B3E80470C5
:10007600075002B2D50202D892D5EC0460F7E4CC60
:10008600C0E0C398F8603B94186008400DD0E0FBD0
:100096000202B0E4FBFAC9FC8028E830E406E4C9B1
:1000A600FBE4CAFCE830E305E4C9CACBFCE8540724
:1000B6006010F8C3E913F9EA13FAEB13FBEC13FC2F
:1000C600D8F130F52FC3E49CFCEF9BFFEE9AFEEDD2
:1000D60099FDD0E0FBEF4E4D4C701222DB0302027D
:1000E600D5EC2CFCEF33FFEE33FEED33FDED30E7C0
:1000F600EB0202B0EF2BFFEE3AFEED39FDD0E0FB4E
:1001060050130BBB00030202D8ED13FDEE13FEEFF6
:0801160013FFEC13FC0202B020
:10011E00EC4D6011E8497017ED33EC3304600DE4DB
:10012E00FCFFFEFD22E933E8330470F80202CE1222
:10013E00029958046009E4CC248150062850090223
:10014E0002D82840030202D5C0E0EB4A7044B980C1
:10015E0006D0E0FB0202C4EF4E701CBD8008EBFF20
:10016E00EAFEE9FD80EBE98DF0A4FEE5F002020760
:10017E00E9CDF9EAFEEBFFEF89F0A4FCE5F0CE89BC
:10018E00F0A42EFFE435F0CD89F0A42DFEE435F079
:10019E008067EF4E7005BD80D780C3EF8BF0A4ACA7
:1001AE00F0EE8BF0A42CFCE435F0F8EF8AF0A42CE2
:1001BE00E5F038FCE433CB8DF0A42CFCE5F03BF8F5
:1001CE00EE8AF0A42CFCE5F038F8E433CF89F0A4E5
:1001DE002CFCE5F038CF3400CE89F0A42FFFE5F0EB
:1001EE003EFEE433C98DF0A42EFEE5F039CD8AF043
:1001FE00A42FFFE5F03EFEE43DFD33D0E0FB5007BB
:10020E000BBB000F0202D8EC2CFCEF33FFEE33FEDB
:06021E00ED33FD0202B009
:1002240075F020800E75F010800575F0087D007E55
:10023400007F003392D530D50312045EEC334010B6
:10024400EF33FFEE33FEED33FDEC33FCD5F0ED225E
:0E025400E5F0247EA2D513CC92E7CDCEFF229A
:10026200EDD2E7CD33EC3392D524814006E4FFFE94
:10027200FDFC22FCE4CFCECDCC24E0501174FF80F3
:10028200EDC3CC13CCCD13CDCE13CECF13CF047090
:07029200F030D5DE02045E2E
:10029900E9D2E7C933E833F892D5EDD2E7CD33ECAB
:0702A90033FC5002B2D52224
:1002B000EC30E7100FBF000C0EBE00080DBD0004AF
:1002C0000BEB6014A2D5EB13FCED92E7FD2274FF5B
:1002D000FCFDFEFF22E480F8A2D574FF13FC7D80B4
:0302E000E480EFC8
:030000000206A84D
:0C06A800787FE4F6D8FD7581880206EF2B
:1002E300E709F608DFFA8046E709F208DFFA803EFD
:1002F30088828C83E709F0A3DFFA8032E309F608EA
:10030300DFFA8078E309F208DFFA807088828C8351
:10031300E309F0A3DFFA806489828A83E0A3F60805
:10032300DFFA805889828A83E0A3F208DFFA804CDF
:1003330080D280FA80C680D4806980F280338010B6
:1003430080A680EA809A80A880DA80E280CA80331F
:1003530089828A83ECFAE493A3C8C582C8CCC58397
:10036300CCF0A3C8C582C8CCC583CCDFE9DEE78067
:100373000D89828A83E493A3F608DFF9ECFAA9F0E6
:10038300EDFB2289828A83ECFAE0A3C8C582C8CC3C
:10039300C583CCF0A3C8C582C8CCC583CCDFEADE55
:1003A300E880DB89828A83E493A3F208DFF980CCB7
:1003B30088F0EF60010E4E60C388F0ED2402B404B0
:1003C3000050B9F582EB2402B4040050AF23234557
:0603D30082239003337346
:1003D900BB010CE58229F582E5833AF583E02250D9
:1003E90006E92582F8E622BBFE06E92582F8E22223
:0D03F900E58229F582E5833AF583E493223D
:10040600F8BB010DE58229F582E5833AF583E8F02C
:10041600225006E92582C8F622BBFE05E92582C8D8
:02042600F222C0
:10042800C2D5EC30E709B2D5E4C39DFDE49CFCEEEF
:1004380030E715B2D5E4C39FFFE49EFE120485C3DE
:10044800E49DFDE49CFC800312048530D507C3E4D9
:060458009FFFE49EFE225E
:0E045E00C3E49FFFE49EFEE49DFDE49CFC22AF
:10000E00E4FFFE12046C600C0FEF70010E09E97034
:05001E00F20A80EF2250
:1006B400020904E493A3F8E493A34003F68001F24F
:1006C40008DFF48029E493A3F85407240CC8C33347
:1006D400C4540F4420C8834004F456800146F6DF16
:1006E400E4800B0102040810204080900D93E47E06
:1006F400019360BCA3FF543F30E509541FFEE4930B
:10070400A360010ECF54C025E060A840B8E493A3D1
:10071400FAE493A3F8E493A3C8C582C8CAC583CAFC
:10072400F0A3C8C582C8CAC583CADFE9DEE780BEB4
:010DA9000049
:10046C00BB010689828A83E0225002E722BBFE028E
:09047C00E32289828A83E49322C1
:10048500BC000BBE0029EF8DF084FFADF022E4CC5B
:10049500F875F008EF2FFFEE33FEEC33FCEE9DEC24
:1004A500984005FCEE9DFE0FD5F0E9E4CEFD22ED6A
:1004B500F8F5F0EE8420D21CFEADF075F008EF2FB4
:1004C500FFED33FD4007985006D5F0F222C398FDA5
:0504D5000FD5F0EA2242
:00000001FF
